{
  "contractName": "ClaimManager",
  "abi": [
    {
      "inputs": [
        {
          "name": "managerAddr",
          "type": "address"
        }
      ],
      "payable": false,
      "stateMutability": "nonpayable",
      "type": "constructor"
    },
    {
      "anonymous": false,
      "inputs": [
        {
          "indexed": true,
          "name": "identity",
          "type": "address"
        },
        {
          "indexed": true,
          "name": "claimId",
          "type": "bytes32"
        },
        {
          "indexed": true,
          "name": "claimType",
          "type": "uint256"
        },
        {
          "indexed": false,
          "name": "scheme",
          "type": "uint256"
        },
        {
          "indexed": false,
          "name": "issuer",
          "type": "address"
        },
        {
          "indexed": false,
          "name": "signature",
          "type": "bytes"
        },
        {
          "indexed": false,
          "name": "data",
          "type": "bytes"
        },
        {
          "indexed": false,
          "name": "uri",
          "type": "string"
        }
      ],
      "name": "ClaimAdded",
      "type": "event"
    },
    {
      "anonymous": false,
      "inputs": [
        {
          "indexed": true,
          "name": "identity",
          "type": "address"
        },
        {
          "indexed": true,
          "name": "claimId",
          "type": "bytes32"
        },
        {
          "indexed": true,
          "name": "claimType",
          "type": "uint256"
        },
        {
          "indexed": false,
          "name": "scheme",
          "type": "uint256"
        },
        {
          "indexed": false,
          "name": "issuer",
          "type": "address"
        },
        {
          "indexed": false,
          "name": "signature",
          "type": "bytes"
        },
        {
          "indexed": false,
          "name": "data",
          "type": "bytes"
        },
        {
          "indexed": false,
          "name": "uri",
          "type": "string"
        }
      ],
      "name": "ClaimRemoved",
      "type": "event"
    },
    {
      "constant": false,
      "inputs": [
        {
          "name": "identity",
          "type": "address"
        },
        {
          "name": "_claimType",
          "type": "uint256"
        },
        {
          "name": "_scheme",
          "type": "uint256"
        },
        {
          "name": "_signature",
          "type": "bytes"
        },
        {
          "name": "_data",
          "type": "bytes"
        },
        {
          "name": "_uri",
          "type": "string"
        }
      ],
      "name": "addClaim",
      "outputs": [
        {
          "name": "claimRequestId",
          "type": "bytes32"
        }
      ],
      "payable": false,
      "stateMutability": "nonpayable",
      "type": "function"
    },
    {
      "constant": false,
      "inputs": [
        {
          "name": "identity",
          "type": "address"
        },
        {
          "name": "_claimId",
          "type": "bytes32"
        }
      ],
      "name": "removeClaim",
      "outputs": [
        {
          "name": "success",
          "type": "bool"
        }
      ],
      "payable": false,
      "stateMutability": "nonpayable",
      "type": "function"
    },
    {
      "constant": true,
      "inputs": [
        {
          "name": "identity",
          "type": "address"
        },
        {
          "name": "_claimId",
          "type": "bytes32"
        }
      ],
      "name": "getClaim",
      "outputs": [
        {
          "name": "claimType",
          "type": "uint256"
        },
        {
          "name": "scheme",
          "type": "uint256"
        },
        {
          "name": "issuer",
          "type": "address"
        },
        {
          "name": "signature",
          "type": "bytes"
        },
        {
          "name": "data",
          "type": "bytes"
        },
        {
          "name": "uri",
          "type": "string"
        }
      ],
      "payable": false,
      "stateMutability": "view",
      "type": "function"
    }
  ],
  "bytecode": "0x6060604052341561000f57600080fd5b6040516020806117a88339810160405280805190602001909190505080600260006101000a81548173ffffffffffffffffffffffffffffffffffffffff021916908373ffffffffffffffffffffffffffffffffffffffff1602179055505061172c8061007c6000396000f300606060405260043610610057576000357c0100000000000000000000000000000000000000000000000000000000900463ffffffff1680634361443f1461005c5780635c39ec5814610234578063a1c8ca7e14610364575b600080fd5b341561006757600080fd5b6100a0600480803573ffffffffffffffffffffffffffffffffffffffff16906020019091908035600019169060200190919050506103c2565b604051808781526020018681526020018573ffffffffffffffffffffffffffffffffffffffff1673ffffffffffffffffffffffffffffffffffffffff168152602001806020018060200180602001848103845287818151815260200191508051906020019080838360005b8381101561012657808201518184015260208101905061010b565b50505050905090810190601f1680156101535780820380516001836020036101000a031916815260200191505b50848103835286818151815260200191508051906020019080838360005b8381101561018c578082015181840152602081019050610171565b50505050905090810190601f1680156101b95780820380516001836020036101000a031916815260200191505b50848103825285818151815260200191508051906020019080838360005b838110156101f25780820151818401526020810190506101d7565b50505050905090810190601f16801561021f5780820380516001836020036101000a031916815260200191505b50995050505050505050505060405180910390f35b341561023f57600080fd5b610346600480803573ffffffffffffffffffffffffffffffffffffffff1690602001909190803590602001909190803590602001909190803590602001908201803590602001908080601f0160208091040260200160405190810160405280939291908181526020018383808284378201915050505050509190803590602001908201803590602001908080601f0160208091040260200160405190810160405280939291908181526020018383808284378201915050505050509190803590602001908201803590602001908080601f01602080910402602001604051908101604052809392919081815260200183838082843782019150505050505091905050610808565b60405180826000191660001916815260200191505060405180910390f35b341561036f57600080fd5b6103a8600480803573ffffffffffffffffffffffffffffffffffffffff1690602001909190803560001916906020019091905050610dd7565b604051808215151515815260200191505060405180910390f35b60008060006103cf6114d2565b6103d76114d2565b6103df6114e6565b6000808973ffffffffffffffffffffffffffffffffffffffff1673ffffffffffffffffffffffffffffffffffffffff16815260200190815260200160002060008860001916600019168152602001908152602001600020600001546000808a73ffffffffffffffffffffffffffffffffffffffff1673ffffffffffffffffffffffffffffffffffffffff16815260200190815260200160002060008960001916600019168152602001908152602001600020600101546000808b73ffffffffffffffffffffffffffffffffffffffff1673ffffffffffffffffffffffffffffffffffffffff16815260200190815260200160002060008a6000191660001916815260200190815260200160002060020160009054906101000a900473ffffffffffffffffffffffffffffffffffffffff166000808c73ffffffffffffffffffffffffffffffffffffffff1673ffffffffffffffffffffffffffffffffffffffff16815260200190815260200160002060008b600019166000191681526020019081526020016000206003016000808d73ffffffffffffffffffffffffffffffffffffffff1673ffffffffffffffffffffffffffffffffffffffff16815260200190815260200160002060008c600019166000191681526020019081526020016000206004016000808e73ffffffffffffffffffffffffffffffffffffffff1673ffffffffffffffffffffffffffffffffffffffff16815260200190815260200160002060008d60001916600019168152602001908152602001600020600501828054600181600116156101000203166002900480601f0160208091040260200160405190810160405280929190818152602001828054600181600116156101000203166002900480156106b35780601f10610688576101008083540402835291602001916106b3565b820191906000526020600020905b81548152906001019060200180831161069657829003601f168201915b50505050509250818054600181600116156101000203166002900480601f01602080910402602001604051908101604052809291908181526020018280546001816001161561010002031660029004801561074f5780601f106107245761010080835404028352916020019161074f565b820191906000526020600020905b81548152906001019060200180831161073257829003601f168201915b50505050509150808054600181600116156101000203166002900480601f0160208091040260200160405190810160405280929190818152602001828054600181600116156101000203166002900480156107eb5780601f106107c0576101008083540402835291602001916107eb565b820191906000526020600020905b8154815290600101906020018083116107ce57829003601f168201915b505050505090509550955095509550955095509295509295509295565b6000803387604051808373ffffffffffffffffffffffffffffffffffffffff1673ffffffffffffffffffffffffffffffffffffffff166c0100000000000000000000000002815260140182815260200192505050604051809103902090503373ffffffffffffffffffffffffffffffffffffffff166000808a73ffffffffffffffffffffffffffffffffffffffff1673ffffffffffffffffffffffffffffffffffffffff1681526020019081526020016000206000836000191660001916815260200190815260200160002060020160009054906101000a900473ffffffffffffffffffffffffffffffffffffffff1673ffffffffffffffffffffffffffffffffffffffff161415156109565760016000888152602001908152602001600020805480600101828161093a91906114fa565b9160005260206000209001600083909190915090600019169055505b866000808a73ffffffffffffffffffffffffffffffffffffffff1673ffffffffffffffffffffffffffffffffffffffff1681526020019081526020016000206000836000191660001916815260200190815260200160002060000181905550856000808a73ffffffffffffffffffffffffffffffffffffffff1673ffffffffffffffffffffffffffffffffffffffff1681526020019081526020016000206000836000191660001916815260200190815260200160002060010181905550336000808a73ffffffffffffffffffffffffffffffffffffffff1673ffffffffffffffffffffffffffffffffffffffff1681526020019081526020016000206000836000191660001916815260200190815260200160002060020160006101000a81548173ffffffffffffffffffffffffffffffffffffffff021916908373ffffffffffffffffffffffffffffffffffffffff160217905550846000808a73ffffffffffffffffffffffffffffffffffffffff1673ffffffffffffffffffffffffffffffffffffffff168152602001908152602001600020600083600019166000191681526020019081526020016000206003019080519060200190610b1b929190611526565b50836000808a73ffffffffffffffffffffffffffffffffffffffff1673ffffffffffffffffffffffffffffffffffffffff168152602001908152602001600020600083600019166000191681526020019081526020016000206004019080519060200190610b8a929190611526565b50826000808a73ffffffffffffffffffffffffffffffffffffffff1673ffffffffffffffffffffffffffffffffffffffff168152602001908152602001600020600083600019166000191681526020019081526020016000206005019080519060200190610bf99291906115a6565b508681600019168973ffffffffffffffffffffffffffffffffffffffff167f5fd10075776809cdc631e882184100a9b29d0c58f21b79494d761456f605217d89338a8a8a604051808681526020018573ffffffffffffffffffffffffffffffffffffffff1673ffffffffffffffffffffffffffffffffffffffff168152602001806020018060200180602001848103845287818151815260200191508051906020019080838360005b83811015610cbd578082015181840152602081019050610ca2565b50505050905090810190601f168015610cea5780820380516001836020036101000a031916815260200191505b50848103835286818151815260200191508051906020019080838360005b83811015610d23578082015181840152602081019050610d08565b50505050905090810190601f168015610d505780820380516001836020036101000a031916815260200191505b50848103825285818151815260200191508051906020019080838360005b83811015610d89578082015181840152602081019050610d6e565b50505050905090810190601f168015610db65780820380516001836020036101000a031916815260200191505b509850505050505050505060405180910390a4809150509695505050505050565b6000600260009054906101000a900473ffffffffffffffffffffffffffffffffffffffff1673ffffffffffffffffffffffffffffffffffffffff16637ddc02d484336000604051602001526040518363ffffffff167c0100000000000000000000000000000000000000000000000000000000028152600401808373ffffffffffffffffffffffffffffffffffffffff1673ffffffffffffffffffffffffffffffffffffffff1681526020018273ffffffffffffffffffffffffffffffffffffffff1673ffffffffffffffffffffffffffffffffffffffff16815260200192505050602060405180830381600087803b1515610ed257600080fd5b6102c65a03f11515610ee357600080fd5b5050506040518051905080610f9d57503373ffffffffffffffffffffffffffffffffffffffff166000808573ffffffffffffffffffffffffffffffffffffffff1673ffffffffffffffffffffffffffffffffffffffff1681526020019081526020016000206000846000191660001916815260200190815260200160002060020160009054906101000a900473ffffffffffffffffffffffffffffffffffffffff1673ffffffffffffffffffffffffffffffffffffffff16145b1515610fa857600080fd5b6000808473ffffffffffffffffffffffffffffffffffffffff1673ffffffffffffffffffffffffffffffffffffffff168152602001908152602001600020600083600019166000191681526020019081526020016000206000015482600019168473ffffffffffffffffffffffffffffffffffffffff167fc1995e8dd105bd365cdd1eae64b4ae2e991ea8e20e514641d3b2d7eef9d368d36000808873ffffffffffffffffffffffffffffffffffffffff1673ffffffffffffffffffffffffffffffffffffffff16815260200190815260200160002060008760001916600019168152602001908152602001600020600101546000808973ffffffffffffffffffffffffffffffffffffffff1673ffffffffffffffffffffffffffffffffffffffff1681526020019081526020016000206000886000191660001916815260200190815260200160002060020160009054906101000a900473ffffffffffffffffffffffffffffffffffffffff166000808a73ffffffffffffffffffffffffffffffffffffffff1673ffffffffffffffffffffffffffffffffffffffff168152602001908152602001600020600089600019166000191681526020019081526020016000206003016000808b73ffffffffffffffffffffffffffffffffffffffff1673ffffffffffffffffffffffffffffffffffffffff16815260200190815260200160002060008a600019166000191681526020019081526020016000206004016000808c73ffffffffffffffffffffffffffffffffffffffff1673ffffffffffffffffffffffffffffffffffffffff16815260200190815260200160002060008b60001916600019168152602001908152602001600020600501604051808681526020018573ffffffffffffffffffffffffffffffffffffffff1673ffffffffffffffffffffffffffffffffffffffff1681526020018060200180602001806020018481038452878181546001816001161561010002031660029004815260200191508054600181600116156101000203166002900480156112ed5780601f106112c2576101008083540402835291602001916112ed565b820191906000526020600020905b8154815290600101906020018083116112d057829003601f168201915b50508481038352868181546001816001161561010002031660029004815260200191508054600181600116156101000203166002900480156113705780601f1061134557610100808354040283529160200191611370565b820191906000526020600020905b81548152906001019060200180831161135357829003601f168201915b50508481038252858181546001816001161561010002031660029004815260200191508054600181600116156101000203166002900480156113f35780601f106113c8576101008083540402835291602001916113f3565b820191906000526020600020905b8154815290600101906020018083116113d657829003601f168201915b50509850505050505050505060405180910390a46000808473ffffffffffffffffffffffffffffffffffffffff1673ffffffffffffffffffffffffffffffffffffffff1681526020019081526020016000206000836000191660001916815260200190815260200160002060008082016000905560018201600090556002820160006101000a81549073ffffffffffffffffffffffffffffffffffffffff02191690556003820160006114a69190611626565b6004820160006114b69190611626565b6005820160006114c6919061166e565b50506001905092915050565b602060405190810160405280600081525090565b602060405190810160405280600081525090565b8154818355818115116115215781836000526020600020918201910161152091906116b6565b5b505050565b828054600181600116156101000203166002900490600052602060002090601f016020900481019282601f1061156757805160ff1916838001178555611595565b82800160010185558215611595579182015b82811115611594578251825591602001919060010190611579565b5b5090506115a291906116db565b5090565b828054600181600116156101000203166002900490600052602060002090601f016020900481019282601f106115e757805160ff1916838001178555611615565b82800160010185558215611615579182015b828111156116145782518255916020019190600101906115f9565b5b50905061162291906116db565b5090565b50805460018160011615610100020316600290046000825580601f1061164c575061166b565b601f01602090049060005260206000209081019061166a91906116db565b5b50565b50805460018160011615610100020316600290046000825580601f1061169457506116b3565b601f0160209004906000526020600020908101906116b291906116db565b5b50565b6116d891905b808211156116d45760008160009055506001016116bc565b5090565b90565b6116fd91905b808211156116f95760008160009055506001016116e1565b5090565b905600a165627a7a723058209a185c6ea55af2f97631ec23b4e45182e7b89f4bcdbca1f7daa503a40a133ed20029",
  "source": "pragma solidity 0.4.19;\n\nimport \"./IdentityManager.sol\";\n\ncontract ClaimManager {\n\n    event ClaimAdded(address indexed identity, bytes32 indexed claimId, uint256 indexed claimType, uint256 scheme, address issuer, bytes signature, bytes data, string uri);\n    event ClaimRemoved(address indexed identity, bytes32 indexed claimId, uint256 indexed claimType, uint256 scheme, address issuer, bytes signature, bytes data, string uri);\n\n    struct Claim {\n        uint256 claimType;\n        uint256 scheme;\n        address issuer; // msg.sender\n        bytes signature; // this.address + claimType + data\n        bytes data;\n        string uri;\n    }\n    mapping (address => mapping(bytes32 => Claim)) claims;\n    mapping (uint256 => bytes32[]) claimsByType;\n\n    IdentityManager manager;\n\n    /**\n     * Constructor.\n     * @param managerAddr The ClaimManager contract.\n     */\n    function ClaimManager(IdentityManager managerAddr) public {\n        manager = managerAddr;\n    }\n\n    function addClaim(\n        address identity,\n        uint256 _claimType,\n        uint256 _scheme,\n        bytes _signature,\n        bytes _data,\n        string _uri\n    )\n        public\n        returns (bytes32 claimRequestId)\n    { \n        bytes32 claimId = keccak256(msg.sender, _claimType);\n\n        if (claims[identity][claimId].issuer != msg.sender) {\n            claimsByType[_claimType].push(claimId);\n        }\n\n        claims[identity][claimId].claimType = _claimType;\n        claims[identity][claimId].scheme = _scheme;\n        claims[identity][claimId].issuer = msg.sender;\n        claims[identity][claimId].signature = _signature;\n        claims[identity][claimId].data = _data;\n        claims[identity][claimId].uri = _uri;\n  \n        ClaimAdded(\n            identity,\n            claimId,\n            _claimType,\n            _scheme,\n            msg.sender,\n            _signature,\n            _data,\n            _uri\n        );\n\n        return claimId;\n    }\n\n    function removeClaim(address identity, bytes32 _claimId) public returns (bool success) {\n        require(manager.isOwner(identity, msg.sender) || claims[identity][_claimId].issuer == msg.sender);\n\n        ClaimRemoved(\n            identity,\n            _claimId,\n            claims[identity][_claimId].claimType,\n            claims[identity][_claimId].scheme,\n            claims[identity][_claimId].issuer,\n            claims[identity][_claimId].signature,\n            claims[identity][_claimId].data,\n            claims[identity][_claimId].uri\n        );\n\n        delete claims[identity][_claimId];\n        return true;\n    }\n\n    function getClaim(address identity, bytes32 _claimId)\n        public\n        constant\n        returns(\n            uint256 claimType,\n            uint256 scheme,\n            address issuer,\n            bytes signature,\n            bytes data,\n            string uri\n        )\n    {\n        return (\n            claims[identity][_claimId].claimType,\n            claims[identity][_claimId].scheme,\n            claims[identity][_claimId].issuer,\n            claims[identity][_claimId].signature,\n            claims[identity][_claimId].data,\n            claims[identity][_claimId].uri\n        );\n    }\n\n\n   \n}",
  "sourcePath": "/Users/seanchuang/workspace/blockchain/idhub/idhub-member-system/contracts/ClaimManager.sol",
  "compiler": {
    "name": "solc",
    "version": "0.4.19+commit.c4cbbb05.Emscripten.clang"
  },
  "schemaVersion": "2.0.0",
  "updatedAt": "2018-11-28T04:39:42.882Z"
}