{
  "contractName": "IdentityManager",
  "abi": [
    {
      "constant": true,
      "inputs": [
        {
          "name": "",
          "type": "address"
        }
      ],
      "name": "migrationNewAddress",
      "outputs": [
        {
          "name": "",
          "type": "address"
        }
      ],
      "payable": false,
      "stateMutability": "view",
      "type": "function"
    },
    {
      "constant": true,
      "inputs": [
        {
          "name": "",
          "type": "address"
        }
      ],
      "name": "migrationInitiated",
      "outputs": [
        {
          "name": "",
          "type": "uint256"
        }
      ],
      "payable": false,
      "stateMutability": "view",
      "type": "function"
    },
    {
      "inputs": [
        {
          "name": "_userTimeLock",
          "type": "uint256"
        },
        {
          "name": "_adminTimeLock",
          "type": "uint256"
        },
        {
          "name": "_adminRate",
          "type": "uint256"
        }
      ],
      "payable": false,
      "stateMutability": "nonpayable",
      "type": "constructor"
    },
    {
      "anonymous": false,
      "inputs": [
        {
          "indexed": true,
          "name": "identity",
          "type": "address"
        },
        {
          "indexed": true,
          "name": "creator",
          "type": "address"
        },
        {
          "indexed": false,
          "name": "owner",
          "type": "address"
        },
        {
          "indexed": true,
          "name": "recoveryKey",
          "type": "address"
        }
      ],
      "name": "LogIdentityCreated",
      "type": "event"
    },
    {
      "anonymous": false,
      "inputs": [
        {
          "indexed": true,
          "name": "identity",
          "type": "address"
        },
        {
          "indexed": true,
          "name": "owner",
          "type": "address"
        },
        {
          "indexed": false,
          "name": "instigator",
          "type": "address"
        }
      ],
      "name": "LogOwnerAdded",
      "type": "event"
    },
    {
      "anonymous": false,
      "inputs": [
        {
          "indexed": true,
          "name": "identity",
          "type": "address"
        },
        {
          "indexed": true,
          "name": "owner",
          "type": "address"
        },
        {
          "indexed": false,
          "name": "instigator",
          "type": "address"
        }
      ],
      "name": "LogOwnerRemoved",
      "type": "event"
    },
    {
      "anonymous": false,
      "inputs": [
        {
          "indexed": true,
          "name": "identity",
          "type": "address"
        },
        {
          "indexed": true,
          "name": "recoveryKey",
          "type": "address"
        },
        {
          "indexed": false,
          "name": "instigator",
          "type": "address"
        }
      ],
      "name": "LogRecoveryChanged",
      "type": "event"
    },
    {
      "anonymous": false,
      "inputs": [
        {
          "indexed": true,
          "name": "identity",
          "type": "address"
        },
        {
          "indexed": true,
          "name": "newIdManager",
          "type": "address"
        },
        {
          "indexed": false,
          "name": "instigator",
          "type": "address"
        }
      ],
      "name": "LogMigrationInitiated",
      "type": "event"
    },
    {
      "anonymous": false,
      "inputs": [
        {
          "indexed": true,
          "name": "identity",
          "type": "address"
        },
        {
          "indexed": true,
          "name": "newIdManager",
          "type": "address"
        },
        {
          "indexed": false,
          "name": "instigator",
          "type": "address"
        }
      ],
      "name": "LogMigrationCanceled",
      "type": "event"
    },
    {
      "anonymous": false,
      "inputs": [
        {
          "indexed": true,
          "name": "identity",
          "type": "address"
        },
        {
          "indexed": true,
          "name": "newIdManager",
          "type": "address"
        },
        {
          "indexed": false,
          "name": "instigator",
          "type": "address"
        }
      ],
      "name": "LogMigrationFinalized",
      "type": "event"
    },
    {
      "constant": false,
      "inputs": [
        {
          "name": "owner",
          "type": "address"
        },
        {
          "name": "recoveryKey",
          "type": "address"
        }
      ],
      "name": "createIdentity",
      "outputs": [],
      "payable": false,
      "stateMutability": "nonpayable",
      "type": "function"
    },
    {
      "constant": false,
      "inputs": [
        {
          "name": "owner",
          "type": "address"
        },
        {
          "name": "recoveryKey",
          "type": "address"
        },
        {
          "name": "destination",
          "type": "address"
        },
        {
          "name": "data",
          "type": "bytes"
        }
      ],
      "name": "createIdentityWithCall",
      "outputs": [],
      "payable": false,
      "stateMutability": "nonpayable",
      "type": "function"
    },
    {
      "constant": false,
      "inputs": [
        {
          "name": "owner",
          "type": "address"
        },
        {
          "name": "recoveryKey",
          "type": "address"
        }
      ],
      "name": "registerIdentity",
      "outputs": [],
      "payable": false,
      "stateMutability": "nonpayable",
      "type": "function"
    },
    {
      "constant": false,
      "inputs": [
        {
          "name": "identity",
          "type": "address"
        },
        {
          "name": "destination",
          "type": "address"
        },
        {
          "name": "value",
          "type": "uint256"
        },
        {
          "name": "data",
          "type": "bytes"
        }
      ],
      "name": "forwardTo",
      "outputs": [],
      "payable": false,
      "stateMutability": "nonpayable",
      "type": "function"
    },
    {
      "constant": false,
      "inputs": [
        {
          "name": "identity",
          "type": "address"
        },
        {
          "name": "newOwner",
          "type": "address"
        }
      ],
      "name": "addOwner",
      "outputs": [],
      "payable": false,
      "stateMutability": "nonpayable",
      "type": "function"
    },
    {
      "constant": false,
      "inputs": [
        {
          "name": "identity",
          "type": "address"
        },
        {
          "name": "newOwner",
          "type": "address"
        }
      ],
      "name": "addOwnerFromRecovery",
      "outputs": [],
      "payable": false,
      "stateMutability": "nonpayable",
      "type": "function"
    },
    {
      "constant": false,
      "inputs": [
        {
          "name": "identity",
          "type": "address"
        },
        {
          "name": "owner",
          "type": "address"
        }
      ],
      "name": "removeOwner",
      "outputs": [],
      "payable": false,
      "stateMutability": "nonpayable",
      "type": "function"
    },
    {
      "constant": false,
      "inputs": [
        {
          "name": "identity",
          "type": "address"
        },
        {
          "name": "recoveryKey",
          "type": "address"
        }
      ],
      "name": "changeRecovery",
      "outputs": [],
      "payable": false,
      "stateMutability": "nonpayable",
      "type": "function"
    },
    {
      "constant": false,
      "inputs": [
        {
          "name": "identity",
          "type": "address"
        },
        {
          "name": "newIdManager",
          "type": "address"
        }
      ],
      "name": "initiateMigration",
      "outputs": [],
      "payable": false,
      "stateMutability": "nonpayable",
      "type": "function"
    },
    {
      "constant": false,
      "inputs": [
        {
          "name": "identity",
          "type": "address"
        }
      ],
      "name": "cancelMigration",
      "outputs": [],
      "payable": false,
      "stateMutability": "nonpayable",
      "type": "function"
    },
    {
      "constant": false,
      "inputs": [
        {
          "name": "identity",
          "type": "address"
        }
      ],
      "name": "finalizeMigration",
      "outputs": [],
      "payable": false,
      "stateMutability": "nonpayable",
      "type": "function"
    },
    {
      "constant": true,
      "inputs": [
        {
          "name": "identity",
          "type": "address"
        },
        {
          "name": "owner",
          "type": "address"
        }
      ],
      "name": "isOwner",
      "outputs": [
        {
          "name": "",
          "type": "bool"
        }
      ],
      "payable": false,
      "stateMutability": "view",
      "type": "function"
    },
    {
      "constant": true,
      "inputs": [
        {
          "name": "identity",
          "type": "address"
        },
        {
          "name": "owner",
          "type": "address"
        }
      ],
      "name": "isOlderOwner",
      "outputs": [
        {
          "name": "",
          "type": "bool"
        }
      ],
      "payable": false,
      "stateMutability": "view",
      "type": "function"
    },
    {
      "constant": true,
      "inputs": [
        {
          "name": "identity",
          "type": "address"
        },
        {
          "name": "recoveryKey",
          "type": "address"
        }
      ],
      "name": "isRecovery",
      "outputs": [
        {
          "name": "",
          "type": "bool"
        }
      ],
      "payable": false,
      "stateMutability": "view",
      "type": "function"
    }
  ],
  "bytecode": "0x6060604052341561000f57600080fd5b6040516060806129f28339810160405280805190602001909190805190602001909190805190602001909190505082821015151561004c57600080fd5b81600081905550826001819055508060028190555050505061297f806100736000396000f3006060604052600436106100e6576000357c0100000000000000000000000000000000000000000000000000000000900463ffffffff16806311fe12b3146100eb57806316d390bf1461015b57806332967ea0146101b35780633c8ac88e146102235780633dcf59ca146102dd578063422e33f3146103355780635143eea2146103ae57806353faa9a914610406578063633b19541461045e5780636f022ac41461049757806373b40a5c146104d0578063781f5a83146105745780637ddc02d4146105cc578063c778427b1461063c578063d10e73ab14610689578063fbe5ce0a146106e1575b600080fd5b34156100f657600080fd5b610141600480803573ffffffffffffffffffffffffffffffffffffffff1690602001909190803573ffffffffffffffffffffffffffffffffffffffff16906020019091905050610739565b604051808215151515815260200191505060405180910390f35b341561016657600080fd5b6101b1600480803573ffffffffffffffffffffffffffffffffffffffff1690602001909190803573ffffffffffffffffffffffffffffffffffffffff169060200190919050506107d1565b005b34156101be57600080fd5b610209600480803573ffffffffffffffffffffffffffffffffffffffff1690602001909190803573ffffffffffffffffffffffffffffffffffffffff16906020019091905050610a29565b604051808215151515815260200191505060405180910390f35b341561022e57600080fd5b6102db600480803573ffffffffffffffffffffffffffffffffffffffff1690602001909190803573ffffffffffffffffffffffffffffffffffffffff1690602001909190803573ffffffffffffffffffffffffffffffffffffffff1690602001909190803590602001908201803590602001908080601f01602080910402602001604051908101604052809392919081815260200183838082843782019150505050505091905050610b3e565b005b34156102e857600080fd5b610333600480803573ffffffffffffffffffffffffffffffffffffffff1690602001909190803573ffffffffffffffffffffffffffffffffffffffff16906020019091905050610e74565b005b341561034057600080fd5b61036c600480803573ffffffffffffffffffffffffffffffffffffffff16906020019091905050611020565b604051808273ffffffffffffffffffffffffffffffffffffffff1673ffffffffffffffffffffffffffffffffffffffff16815260200191505060405180910390f35b34156103b957600080fd5b610404600480803573ffffffffffffffffffffffffffffffffffffffff1690602001909190803573ffffffffffffffffffffffffffffffffffffffff16906020019091905050611053565b005b341561041157600080fd5b61045c600480803573ffffffffffffffffffffffffffffffffffffffff1690602001909190803573ffffffffffffffffffffffffffffffffffffffff1690602001909190505061132b565b005b341561046957600080fd5b610495600480803573ffffffffffffffffffffffffffffffffffffffff169060200190919050506115a4565b005b34156104a257600080fd5b6104ce600480803573ffffffffffffffffffffffffffffffffffffffff16906020019091905050611986565b005b34156104db57600080fd5b610572600480803573ffffffffffffffffffffffffffffffffffffffff1690602001909190803573ffffffffffffffffffffffffffffffffffffffff1690602001909190803590602001909190803590602001908201803590602001908080601f01602080910402602001604051908101604052809392919081815260200183838082843782019150505050505091905050611b3b565b005b341561057f57600080fd5b6105ca600480803573ffffffffffffffffffffffffffffffffffffffff1690602001909190803573ffffffffffffffffffffffffffffffffffffffff16906020019091905050611c7b565b005b34156105d757600080fd5b610622600480803573ffffffffffffffffffffffffffffffffffffffff1690602001909190803573ffffffffffffffffffffffffffffffffffffffff16906020019091905050611eec565b604051808215151515815260200191505060405180910390f35b341561064757600080fd5b610673600480803573ffffffffffffffffffffffffffffffffffffffff16906020019091905050612001565b6040518082815260200191505060405180910390f35b341561069457600080fd5b6106df600480803573ffffffffffffffffffffffffffffffffffffffff1690602001909190803573ffffffffffffffffffffffffffffffffffffffff16906020019091905050612019565b005b34156106ec57600080fd5b610737600480803573ffffffffffffffffffffffffffffffffffffffff1690602001909190803573ffffffffffffffffffffffffffffffffffffffff16906020019091905050612229565b005b60008173ffffffffffffffffffffffffffffffffffffffff16600460008573ffffffffffffffffffffffffffffffffffffffff1673ffffffffffffffffffffffffffffffffffffffff16815260200190815260200160002060009054906101000a900473ffffffffffffffffffffffffffffffffffffffff1673ffffffffffffffffffffffffffffffffffffffff1614905092915050565b816107dc8133610a29565b15156107e757600080fd5b826002544203600560008373ffffffffffffffffffffffffffffffffffffffff1673ffffffffffffffffffffffffffffffffffffffff16815260200190815260200160002060003373ffffffffffffffffffffffffffffffffffffffff1673ffffffffffffffffffffffffffffffffffffffff1681526020019081526020016000205410151561087657600080fd5b42600560008373ffffffffffffffffffffffffffffffffffffffff1673ffffffffffffffffffffffffffffffffffffffff16815260200190815260200160002060003373ffffffffffffffffffffffffffffffffffffffff1673ffffffffffffffffffffffffffffffffffffffff168152602001908152602001600020819055506109018484611eec565b15151561090d57600080fd5b6001544203600360008673ffffffffffffffffffffffffffffffffffffffff1673ffffffffffffffffffffffffffffffffffffffff16815260200190815260200160002060008573ffffffffffffffffffffffffffffffffffffffff1673ffffffffffffffffffffffffffffffffffffffff168152602001908152602001600020819055508273ffffffffffffffffffffffffffffffffffffffff168473ffffffffffffffffffffffffffffffffffffffff167f8672e8532f3edff41d3acf0cd4be6ff900e427461b81d094f0197354471cb3c633604051808273ffffffffffffffffffffffffffffffffffffffff1673ffffffffffffffffffffffffffffffffffffffff16815260200191505060405180910390a350505050565b600080600360008573ffffffffffffffffffffffffffffffffffffffff1673ffffffffffffffffffffffffffffffffffffffff16815260200190815260200160002060008473ffffffffffffffffffffffffffffffffffffffff1673ffffffffffffffffffffffffffffffffffffffff16815260200190815260200160002054118015610b36575042600054600360008673ffffffffffffffffffffffffffffffffffffffff1673ffffffffffffffffffffffffffffffffffffffff16815260200190815260200160002060008573ffffffffffffffffffffffffffffffffffffffff1673ffffffffffffffffffffffffffffffffffffffff168152602001908152602001600020540111155b905092915050565b600083600073ffffffffffffffffffffffffffffffffffffffff168173ffffffffffffffffffffffffffffffffffffffff1614151515610b7d57600080fd5b610b856124a1565b604051809103906000f0801515610b9b57600080fd5b91506000544203600360008473ffffffffffffffffffffffffffffffffffffffff1673ffffffffffffffffffffffffffffffffffffffff16815260200190815260200160002060008873ffffffffffffffffffffffffffffffffffffffff1673ffffffffffffffffffffffffffffffffffffffff1681526020019081526020016000208190555084600460008473ffffffffffffffffffffffffffffffffffffffff1673ffffffffffffffffffffffffffffffffffffffff16815260200190815260200160002060006101000a81548173ffffffffffffffffffffffffffffffffffffffff021916908373ffffffffffffffffffffffffffffffffffffffff1602179055508473ffffffffffffffffffffffffffffffffffffffff163373ffffffffffffffffffffffffffffffffffffffff168373ffffffffffffffffffffffffffffffffffffffff167f14e580ab5cd452b772e031536a7c893ec705152c17b3665c6671b382c3ee626689604051808273ffffffffffffffffffffffffffffffffffffffff1673ffffffffffffffffffffffffffffffffffffffff16815260200191505060405180910390a48173ffffffffffffffffffffffffffffffffffffffff1663d7f31eb9856000866040518463ffffffff167c0100000000000000000000000000000000000000000000000000000000028152600401808473ffffffffffffffffffffffffffffffffffffffff1673ffffffffffffffffffffffffffffffffffffffff16815260200183815260200180602001828103825283818151815260200191508051906020019080838360005b83811015610e0b578082015181840152602081019050610df0565b50505050905090810190601f168015610e385780820380516001836020036101000a031916815260200191505b50945050505050600060405180830381600087803b1515610e5857600080fd5b6102c65a03f11515610e6957600080fd5b505050505050505050565b81610e7f8133610a29565b1515610e8a57600080fd5b81600073ffffffffffffffffffffffffffffffffffffffff168173ffffffffffffffffffffffffffffffffffffffff1614151515610ec757600080fd5b42600660008673ffffffffffffffffffffffffffffffffffffffff1673ffffffffffffffffffffffffffffffffffffffff1681526020019081526020016000208190555082600760008673ffffffffffffffffffffffffffffffffffffffff1673ffffffffffffffffffffffffffffffffffffffff16815260200190815260200160002060006101000a81548173ffffffffffffffffffffffffffffffffffffffff021916908373ffffffffffffffffffffffffffffffffffffffff1602179055508273ffffffffffffffffffffffffffffffffffffffff168473ffffffffffffffffffffffffffffffffffffffff167fb7b4557c664a8a4a9a57f5e00f216de044a96f96fc84b70eaa6bd48cb078454133604051808273ffffffffffffffffffffffffffffffffffffffff1673ffffffffffffffffffffffffffffffffffffffff16815260200191505060405180910390a350505050565b60076020528060005260406000206000915054906101000a900473ffffffffffffffffffffffffffffffffffffffff1681565b813373ffffffffffffffffffffffffffffffffffffffff16600460008373ffffffffffffffffffffffffffffffffffffffff1673ffffffffffffffffffffffffffffffffffffffff16815260200190815260200160002060009054906101000a900473ffffffffffffffffffffffffffffffffffffffff1673ffffffffffffffffffffffffffffffffffffffff161415156110ed57600080fd5b826002544203600560008373ffffffffffffffffffffffffffffffffffffffff1673ffffffffffffffffffffffffffffffffffffffff16815260200190815260200160002060003373ffffffffffffffffffffffffffffffffffffffff1673ffffffffffffffffffffffffffffffffffffffff1681526020019081526020016000205410151561117c57600080fd5b42600560008373ffffffffffffffffffffffffffffffffffffffff1673ffffffffffffffffffffffffffffffffffffffff16815260200190815260200160002060003373ffffffffffffffffffffffffffffffffffffffff1673ffffffffffffffffffffffffffffffffffffffff168152602001908152602001600020819055506112078484611eec565b15151561121357600080fd5b42600360008673ffffffffffffffffffffffffffffffffffffffff1673ffffffffffffffffffffffffffffffffffffffff16815260200190815260200160002060008573ffffffffffffffffffffffffffffffffffffffff1673ffffffffffffffffffffffffffffffffffffffff168152602001908152602001600020819055508273ffffffffffffffffffffffffffffffffffffffff168473ffffffffffffffffffffffffffffffffffffffff167f8672e8532f3edff41d3acf0cd4be6ff900e427461b81d094f0197354471cb3c633604051808273ffffffffffffffffffffffffffffffffffffffff1673ffffffffffffffffffffffffffffffffffffffff16815260200191505060405180910390a350505050565b816113368133610a29565b151561134157600080fd5b826002544203600560008373ffffffffffffffffffffffffffffffffffffffff1673ffffffffffffffffffffffffffffffffffffffff16815260200190815260200160002060003373ffffffffffffffffffffffffffffffffffffffff1673ffffffffffffffffffffffffffffffffffffffff168152602001908152602001600020541015156113d057600080fd5b42600560008373ffffffffffffffffffffffffffffffffffffffff1673ffffffffffffffffffffffffffffffffffffffff16815260200190815260200160002060003373ffffffffffffffffffffffffffffffffffffffff1673ffffffffffffffffffffffffffffffffffffffff1681526020019081526020016000208190555082600073ffffffffffffffffffffffffffffffffffffffff168173ffffffffffffffffffffffffffffffffffffffff161415151561148e57600080fd5b83600460008773ffffffffffffffffffffffffffffffffffffffff1673ffffffffffffffffffffffffffffffffffffffff16815260200190815260200160002060006101000a81548173ffffffffffffffffffffffffffffffffffffffff021916908373ffffffffffffffffffffffffffffffffffffffff1602179055508373ffffffffffffffffffffffffffffffffffffffff168573ffffffffffffffffffffffffffffffffffffffff167fbd1ad05c16aafa75ac8c1d6b8264f47ad9f3045596f667c9476f3f749c01870933604051808273ffffffffffffffffffffffffffffffffffffffff1673ffffffffffffffffffffffffffffffffffffffff16815260200191505060405180910390a35050505050565b6000816115b18133610a29565b15156115bc57600080fd5b6000600660008573ffffffffffffffffffffffffffffffffffffffff1673ffffffffffffffffffffffffffffffffffffffff168152602001908152602001600020541415801561164e575042600054600660008673ffffffffffffffffffffffffffffffffffffffff1673ffffffffffffffffffffffffffffffffffffffff1681526020019081526020016000205401105b151561165957600080fd5b600760008473ffffffffffffffffffffffffffffffffffffffff1673ffffffffffffffffffffffffffffffffffffffff16815260200190815260200160002060009054906101000a900473ffffffffffffffffffffffffffffffffffffffff169150600660008473ffffffffffffffffffffffffffffffffffffffff1673ffffffffffffffffffffffffffffffffffffffff16815260200190815260200160002060009055600760008473ffffffffffffffffffffffffffffffffffffffff1673ffffffffffffffffffffffffffffffffffffffff16815260200190815260200160002060006101000a81549073ffffffffffffffffffffffffffffffffffffffff02191690558273ffffffffffffffffffffffffffffffffffffffff16631a695230836040518263ffffffff167c0100000000000000000000000000000000000000000000000000000000028152600401808273ffffffffffffffffffffffffffffffffffffffff1673ffffffffffffffffffffffffffffffffffffffff168152602001915050600060405180830381600087803b15156117fa57600080fd5b6102c65a03f1151561180b57600080fd5b505050600460008473ffffffffffffffffffffffffffffffffffffffff1673ffffffffffffffffffffffffffffffffffffffff16815260200190815260200160002060006101000a81549073ffffffffffffffffffffffffffffffffffffffff0219169055600360008473ffffffffffffffffffffffffffffffffffffffff1673ffffffffffffffffffffffffffffffffffffffff16815260200190815260200160002060003373ffffffffffffffffffffffffffffffffffffffff1673ffffffffffffffffffffffffffffffffffffffff168152602001908152602001600020600090558173ffffffffffffffffffffffffffffffffffffffff168373ffffffffffffffffffffffffffffffffffffffff167f565ed5a2d5e196b82acb6ff1149b699c2b13169c7d34412d736d3c380de64f3133604051808273ffffffffffffffffffffffffffffffffffffffff1673ffffffffffffffffffffffffffffffffffffffff16815260200191505060405180910390a3505050565b6000816119938133611eec565b151561199e57600080fd5b600760008473ffffffffffffffffffffffffffffffffffffffff1673ffffffffffffffffffffffffffffffffffffffff16815260200190815260200160002060009054906101000a900473ffffffffffffffffffffffffffffffffffffffff169150600660008473ffffffffffffffffffffffffffffffffffffffff1673ffffffffffffffffffffffffffffffffffffffff16815260200190815260200160002060009055600760008473ffffffffffffffffffffffffffffffffffffffff1673ffffffffffffffffffffffffffffffffffffffff16815260200190815260200160002060006101000a81549073ffffffffffffffffffffffffffffffffffffffff02191690558173ffffffffffffffffffffffffffffffffffffffff168373ffffffffffffffffffffffffffffffffffffffff167f60e805c5650597523aba29fb00a59c856d925c672bce1ea7d579f03aef3a10ce33604051808273ffffffffffffffffffffffffffffffffffffffff1673ffffffffffffffffffffffffffffffffffffffff16815260200191505060405180910390a3505050565b83611b468133611eec565b1515611b5157600080fd5b8473ffffffffffffffffffffffffffffffffffffffff1663d7f31eb98585856040518463ffffffff167c0100000000000000000000000000000000000000000000000000000000028152600401808473ffffffffffffffffffffffffffffffffffffffff1673ffffffffffffffffffffffffffffffffffffffff16815260200183815260200180602001828103825283818151815260200191508051906020019080838360005b83811015611c13578082015181840152602081019050611bf8565b50505050905090810190601f168015611c405780820380516001836020036101000a031916815260200191505b50945050505050600060405180830381600087803b1515611c6057600080fd5b6102c65a03f11515611c7157600080fd5b5050505050505050565b80600073ffffffffffffffffffffffffffffffffffffffff168173ffffffffffffffffffffffffffffffffffffffff1614151515611cb857600080fd5b6000600460003373ffffffffffffffffffffffffffffffffffffffff1673ffffffffffffffffffffffffffffffffffffffff16815260200190815260200160002060009054906101000a900473ffffffffffffffffffffffffffffffffffffffff1673ffffffffffffffffffffffffffffffffffffffff16141515611d3c57600080fd5b6000544203600360003373ffffffffffffffffffffffffffffffffffffffff1673ffffffffffffffffffffffffffffffffffffffff16815260200190815260200160002060008573ffffffffffffffffffffffffffffffffffffffff1673ffffffffffffffffffffffffffffffffffffffff1681526020019081526020016000208190555081600460003373ffffffffffffffffffffffffffffffffffffffff1673ffffffffffffffffffffffffffffffffffffffff16815260200190815260200160002060006101000a81548173ffffffffffffffffffffffffffffffffffffffff021916908373ffffffffffffffffffffffffffffffffffffffff1602179055508173ffffffffffffffffffffffffffffffffffffffff163373ffffffffffffffffffffffffffffffffffffffff163373ffffffffffffffffffffffffffffffffffffffff167f14e580ab5cd452b772e031536a7c893ec705152c17b3665c6671b382c3ee626686604051808273ffffffffffffffffffffffffffffffffffffffff1673ffffffffffffffffffffffffffffffffffffffff16815260200191505060405180910390a4505050565b600080600360008573ffffffffffffffffffffffffffffffffffffffff1673ffffffffffffffffffffffffffffffffffffffff16815260200190815260200160002060008473ffffffffffffffffffffffffffffffffffffffff1673ffffffffffffffffffffffffffffffffffffffff16815260200190815260200160002054118015611ff9575042600154600360008673ffffffffffffffffffffffffffffffffffffffff1673ffffffffffffffffffffffffffffffffffffffff16815260200190815260200160002060008573ffffffffffffffffffffffffffffffffffffffff1673ffffffffffffffffffffffffffffffffffffffff168152602001908152602001600020540111155b905092915050565b60066020528060005260406000206000915090505481565b600081600073ffffffffffffffffffffffffffffffffffffffff168173ffffffffffffffffffffffffffffffffffffffff161415151561205857600080fd5b6120606124a1565b604051809103906000f080151561207657600080fd5b91506000544203600360008473ffffffffffffffffffffffffffffffffffffffff1673ffffffffffffffffffffffffffffffffffffffff16815260200190815260200160002060008673ffffffffffffffffffffffffffffffffffffffff1673ffffffffffffffffffffffffffffffffffffffff1681526020019081526020016000208190555082600460008473ffffffffffffffffffffffffffffffffffffffff1673ffffffffffffffffffffffffffffffffffffffff16815260200190815260200160002060006101000a81548173ffffffffffffffffffffffffffffffffffffffff021916908373ffffffffffffffffffffffffffffffffffffffff1602179055508273ffffffffffffffffffffffffffffffffffffffff163373ffffffffffffffffffffffffffffffffffffffff168373ffffffffffffffffffffffffffffffffffffffff167f14e580ab5cd452b772e031536a7c893ec705152c17b3665c6671b382c3ee626687604051808273ffffffffffffffffffffffffffffffffffffffff1673ffffffffffffffffffffffffffffffffffffffff16815260200191505060405180910390a450505050565b816122348133610a29565b151561223f57600080fd5b826002544203600560008373ffffffffffffffffffffffffffffffffffffffff1673ffffffffffffffffffffffffffffffffffffffff16815260200190815260200160002060003373ffffffffffffffffffffffffffffffffffffffff1673ffffffffffffffffffffffffffffffffffffffff168152602001908152602001600020541015156122ce57600080fd5b42600560008373ffffffffffffffffffffffffffffffffffffffff1673ffffffffffffffffffffffffffffffffffffffff16815260200190815260200160002060003373ffffffffffffffffffffffffffffffffffffffff1673ffffffffffffffffffffffffffffffffffffffff168152602001908152602001600020819055508273ffffffffffffffffffffffffffffffffffffffff163373ffffffffffffffffffffffffffffffffffffffff161415151561238a57600080fd5b600360008573ffffffffffffffffffffffffffffffffffffffff1673ffffffffffffffffffffffffffffffffffffffff16815260200190815260200160002060008473ffffffffffffffffffffffffffffffffffffffff1673ffffffffffffffffffffffffffffffffffffffff168152602001908152602001600020600090558273ffffffffffffffffffffffffffffffffffffffff168473ffffffffffffffffffffffffffffffffffffffff167f5e159cd4447854ae8b4aa048f91c8daad986faab696c3685030e1a5e5a4e8ced33604051808273ffffffffffffffffffffffffffffffffffffffff1673ffffffffffffffffffffffffffffffffffffffff16815260200191505060405180910390a350505050565b6040516104a2806124b28339019056006060604052336000806101000a81548173ffffffffffffffffffffffffffffffffffffffff021916908373ffffffffffffffffffffffffffffffffffffffff16021790555061044f806100536000396000f300606060405260043610610062576000357c0100000000000000000000000000000000000000000000000000000000900463ffffffff1680631a695230146100b25780632f54bf6e146100eb5780638da5cb5b1461013c578063d7f31eb914610191575b3373ffffffffffffffffffffffffffffffffffffffff167f88a5966d370b9919b20f3e2c13ff65706f196a4e32cc2c12bf57088f88525874346040518082815260200191505060405180910390a2005b34156100bd57600080fd5b6100e9600480803573ffffffffffffffffffffffffffffffffffffffff16906020019091905050610216565b005b34156100f657600080fd5b610122600480803573ffffffffffffffffffffffffffffffffffffffff169060200190919050506102a3565b604051808215151515815260200191505060405180910390f35b341561014757600080fd5b61014f6102fc565b604051808273ffffffffffffffffffffffffffffffffffffffff1673ffffffffffffffffffffffffffffffffffffffff16815260200191505060405180910390f35b341561019c57600080fd5b610214600480803573ffffffffffffffffffffffffffffffffffffffff1690602001909190803590602001909190803590602001908201803590602001908080601f01602080910402602001604051908101604052809392919081815260200183838082843782019150505050505091905050610321565b005b61021f336102a3565b151561022a57600080fd5b3073ffffffffffffffffffffffffffffffffffffffff168173ffffffffffffffffffffffffffffffffffffffff161415156102a057806000806101000a81548173ffffffffffffffffffffffffffffffffffffffff021916908373ffffffffffffffffffffffffffffffffffffffff1602179055505b50565b60008060009054906101000a900473ffffffffffffffffffffffffffffffffffffffff1673ffffffffffffffffffffffffffffffffffffffff168273ffffffffffffffffffffffffffffffffffffffff16149050919050565b6000809054906101000a900473ffffffffffffffffffffffffffffffffffffffff1681565b61032a336102a3565b151561033557600080fd5b61034083838361040b565b151561034b57600080fd5b8273ffffffffffffffffffffffffffffffffffffffff167fc1de93dfa06362c6a616cde73ec17d116c0d588dd1df70f27f91b500de207c4183836040518083815260200180602001828103825283818151815260200191508051906020019080838360005b838110156103cb5780820151818401526020810190506103b0565b50505050905090810190601f1680156103f85780820380516001836020036101000a031916815260200191505b50935050505060405180910390a2505050565b600080600083516020850186885af1905093925050505600a165627a7a72305820e908e574d467e2e00a1e3c45ea9a34808d8756b03f76f40baff1d13af15771fd0029a165627a7a72305820f6749224bb628f382e8e046e0b4379e03e230ad96150c46ca8c3d7dc6073cb070029",
  "source": "pragma solidity 0.4.19;\nimport \"./Proxy.sol\";\n\n\ncontract IdentityManager {\n    uint adminTimeLock;\n    uint userTimeLock;\n    uint adminRate;\n\n    event LogIdentityCreated(\n        address indexed identity,\n        address indexed creator,\n        address owner,\n        address indexed recoveryKey);\n\n    event LogOwnerAdded(\n        address indexed identity,\n        address indexed owner,\n        address instigator);\n\n    event LogOwnerRemoved(\n        address indexed identity,\n        address indexed owner,\n        address instigator);\n\n    event LogRecoveryChanged(\n        address indexed identity,\n        address indexed recoveryKey,\n        address instigator);\n\n    event LogMigrationInitiated(\n        address indexed identity,\n        address indexed newIdManager,\n        address instigator);\n\n    event LogMigrationCanceled(\n        address indexed identity,\n        address indexed newIdManager,\n        address instigator);\n\n    event LogMigrationFinalized(\n        address indexed identity,\n        address indexed newIdManager,\n        address instigator);\n\n    mapping(address => mapping(address => uint)) owners;\n    mapping(address => address) recoveryKeys;\n    mapping(address => mapping(address => uint)) limiter;\n    mapping(address => uint) public migrationInitiated;\n    mapping(address => address) public migrationNewAddress;\n\n    modifier onlyOwner(address identity) {\n        require(isOwner(identity, msg.sender));\n        _;\n    }\n\n    modifier onlyOlderOwner(address identity) {\n        require(isOlderOwner(identity, msg.sender));\n        _;\n    }\n\n    modifier onlyRecovery(address identity) {\n        require(recoveryKeys[identity] == msg.sender);\n        _;\n    }\n\n    modifier rateLimited(address identity) {\n        require(limiter[identity][msg.sender] < (now - adminRate));\n        limiter[identity][msg.sender] = now;\n        _;\n    }\n\n    modifier validAddress(address addr) { //protects against some weird attacks\n        require(addr != address(0));\n        _;\n    }\n\n    /// @dev Contract constructor sets initial timelock limits\n    /// @param _userTimeLock Time before new owner added by recovery can control proxy\n    /// @param _adminTimeLock Time before new owner can add/remove owners\n    /// @param _adminRate Time period used for rate limiting a given key for admin functionality\n    function IdentityManager(uint _userTimeLock, uint _adminTimeLock, uint _adminRate) {\n        require(_adminTimeLock >= _userTimeLock);\n        adminTimeLock = _adminTimeLock;\n        userTimeLock = _userTimeLock;\n        adminRate = _adminRate;\n    }\n\n    /// @dev Creates a new proxy contract for an owner and recovery\n    /// @param owner Key who can use this contract to control proxy. Given full power\n    /// @param recoveryKey Key of recovery network or address from seed to recovery proxy\n    /// Gas cost of 289,311\n    function createIdentity(address owner, address recoveryKey) public validAddress(recoveryKey) {\n        Proxy identity = new Proxy();\n        owners[identity][owner] = now - adminTimeLock; // This is to ensure original owner has full power from day one\n        recoveryKeys[identity] = recoveryKey;\n        LogIdentityCreated(identity, msg.sender, owner,  recoveryKey);\n    }\n\n    /// @dev Creates a new proxy contract for an owner and recovery and allows an initial forward call which would be to set the registry in our case\n    /// @param owner Key who can use this contract to control proxy. Given full power\n    /// @param recoveryKey Key of recovery network or address from seed to recovery proxy\n    /// @param destination Address of contract to be called after proxy is created\n    /// @param data of function to be called at the destination contract\n    function createIdentityWithCall(address owner, address recoveryKey, address destination, bytes data) public validAddress(recoveryKey) {\n        Proxy identity = new Proxy();\n        owners[identity][owner] = now - adminTimeLock; // This is to ensure original owner has full power from day one\n        recoveryKeys[identity] = recoveryKey;\n        LogIdentityCreated(identity, msg.sender, owner,  recoveryKey);\n        identity.forward(destination, 0, data);\n    }\n\n    /// @dev Allows a user to transfer control of existing proxy to this contract. Must come through proxy\n    /// @param owner Key who can use this contract to control proxy. Given full power\n    /// @param recoveryKey Key of recovery network or address from seed to recovery proxy\n    /// Note: User must change owner of proxy to this contract after calling this\n    function registerIdentity(address owner, address recoveryKey) public validAddress(recoveryKey) {\n        require(recoveryKeys[msg.sender] == 0); // Deny any funny business\n        owners[msg.sender][owner] = now - adminTimeLock; // This is to ensure original owner has full power from day one\n        recoveryKeys[msg.sender] = recoveryKey;\n        LogIdentityCreated(msg.sender, msg.sender, owner, recoveryKey);\n    }\n\n    /// @dev Allows a user to forward a call through their proxy.\n    function forwardTo(Proxy identity, address destination, uint value, bytes data) public onlyOwner(identity) {\n        identity.forward(destination, value, data);\n    }\n\n    /// @dev Allows an olderOwner to add a new owner instantly\n    function addOwner(Proxy identity, address newOwner) public onlyOlderOwner(identity) rateLimited(identity) {\n        require(!isOwner(identity, newOwner));\n        owners[identity][newOwner] = now - userTimeLock;\n        LogOwnerAdded(identity, newOwner, msg.sender);\n    }\n\n    /// @dev Allows a recoveryKey to add a new owner with userTimeLock waiting time\n    function addOwnerFromRecovery(Proxy identity, address newOwner) public onlyRecovery(identity) rateLimited(identity) {\n        require(!isOwner(identity, newOwner));\n        owners[identity][newOwner] = now;\n        LogOwnerAdded(identity, newOwner, msg.sender);\n    }\n\n    /// @dev Allows an owner to remove another owner instantly\n    function removeOwner(Proxy identity, address owner) public onlyOlderOwner(identity) rateLimited(identity) {\n        // an owner should not be allowed to remove itself\n        require(msg.sender != owner);\n        delete owners[identity][owner];\n        LogOwnerRemoved(identity, owner, msg.sender);\n    }\n\n    /// @dev Allows an owner to change the recoveryKey instantly\n    function changeRecovery(Proxy identity, address recoveryKey) public\n        onlyOlderOwner(identity)\n        rateLimited(identity)\n        validAddress(recoveryKey)\n    {\n        recoveryKeys[identity] = recoveryKey;\n        LogRecoveryChanged(identity, recoveryKey, msg.sender);\n    }\n\n    /// @dev Allows an owner to begin process of transfering proxy to new IdentityManager\n    function initiateMigration(Proxy identity, address newIdManager) public\n        onlyOlderOwner(identity)\n        validAddress(newIdManager)\n    {\n        migrationInitiated[identity] = now;\n        migrationNewAddress[identity] = newIdManager;\n        LogMigrationInitiated(identity, newIdManager, msg.sender);\n    }\n\n    /// @dev Allows an owner to cancel the process of transfering proxy to new IdentityManager\n    function cancelMigration(Proxy identity) public onlyOwner(identity) {\n        address canceledManager = migrationNewAddress[identity];\n        delete migrationInitiated[identity];\n        delete migrationNewAddress[identity];\n        LogMigrationCanceled(identity, canceledManager, msg.sender);\n    }\n\n    /// @dev Allows an owner to finalize migration once adminTimeLock time has passed\n    /// WARNING: before transfering to a new address, make sure this address is \"ready to recieve\" the proxy.\n    /// Not doing so risks the proxy becoming stuck.\n    function finalizeMigration(Proxy identity) public onlyOlderOwner(identity) {\n        require(migrationInitiated[identity] != 0 && migrationInitiated[identity] + adminTimeLock < now);\n        address newIdManager = migrationNewAddress[identity];\n        delete migrationInitiated[identity];\n        delete migrationNewAddress[identity];\n        identity.transfer(newIdManager);\n        delete recoveryKeys[identity];\n        // We can only delete the owner that we know of. All other owners\n        // needs to be removed before a call to this method.\n        delete owners[identity][msg.sender];\n        LogMigrationFinalized(identity, newIdManager, msg.sender);\n    }\n\n    function isOwner(address identity, address owner) public constant returns (bool) {\n        return (owners[identity][owner] > 0 && (owners[identity][owner] + userTimeLock) <= now);\n    }\n\n    function isOlderOwner(address identity, address owner) public constant returns (bool) {\n        return (owners[identity][owner] > 0 && (owners[identity][owner] + adminTimeLock) <= now);\n    }\n\n    function isRecovery(address identity, address recoveryKey) public constant returns (bool) {\n        return recoveryKeys[identity] == recoveryKey;\n    }\n}\n",
  "sourcePath": "/Users/seanchuang/workspace/blockchain/idhub/idhub-member-system/contracts/IdentityManager.sol",
  "compiler": {
    "name": "solc",
    "version": "0.4.19+commit.c4cbbb05.Emscripten.clang"
  },
  "schemaVersion": "2.0.0",
  "updatedAt": "2018-11-26T06:43:16.165Z"
}