{
  "contractName": "MetaTestRegistry",
  "abi": [
    {
      "constant": true,
      "inputs": [
        {
          "name": "",
          "type": "address"
        }
      ],
      "name": "registry",
      "outputs": [
        {
          "name": "",
          "type": "uint256"
        }
      ],
      "payable": false,
      "stateMutability": "view",
      "type": "function"
    },
    {
      "constant": false,
      "inputs": [
        {
          "name": "sender",
          "type": "address"
        },
        {
          "name": "x",
          "type": "uint256"
        }
      ],
      "name": "register",
      "outputs": [],
      "payable": false,
      "stateMutability": "nonpayable",
      "type": "function"
    }
  ],
  "bytecode": "0x6060604052341561000f57600080fd5b61016b8061001e6000396000f30060606040526004361061004c576000357c0100000000000000000000000000000000000000000000000000000000900463ffffffff168063038defd7146100515780636d705ebb1461009e575b600080fd5b341561005c57600080fd5b610088600480803573ffffffffffffffffffffffffffffffffffffffff169060200190919050506100e0565b6040518082815260200191505060405180910390f35b34156100a957600080fd5b6100de600480803573ffffffffffffffffffffffffffffffffffffffff169060200190919080359060200190919050506100f8565b005b60006020528060005260406000206000915090505481565b806000808473ffffffffffffffffffffffffffffffffffffffff1673ffffffffffffffffffffffffffffffffffffffff1681526020019081526020016000208190555050505600a165627a7a723058200bba3138d963d58080d021082f8f67add83402692216c853f91ba953a491a2550029",
  "source": "pragma solidity 0.4.19;\n\n\n// This contract is only used for testing purposes.\ncontract MetaTestRegistry {\n\n    mapping(address => uint) public registry;\n\n    function register(address sender, uint x) {\n        registry[sender] = x;\n    }\n}",
  "sourcePath": "/Users/seanchuang/workspace/blockchain/idhub/idhub-member-system/contracts/misc/MetaTestRegistry.sol",
  "compiler": {
    "name": "solc",
    "version": "0.4.19+commit.c4cbbb05.Emscripten.clang"
  },
  "schemaVersion": "2.0.0",
  "updatedAt": "2018-11-27T02:36:42.882Z"
}