{
  "contractName": "MetaIdentityManager",
  "abi": [
    {
      "constant": true,
      "inputs": [
        {
          "name": "",
          "type": "address"
        }
      ],
      "name": "migrationNewAddress",
      "outputs": [
        {
          "name": "",
          "type": "address"
        }
      ],
      "payable": false,
      "stateMutability": "view",
      "type": "function"
    },
    {
      "constant": true,
      "inputs": [
        {
          "name": "",
          "type": "address"
        }
      ],
      "name": "migrationInitiated",
      "outputs": [
        {
          "name": "",
          "type": "uint256"
        }
      ],
      "payable": false,
      "stateMutability": "view",
      "type": "function"
    },
    {
      "inputs": [
        {
          "name": "_userTimeLock",
          "type": "uint256"
        },
        {
          "name": "_adminTimeLock",
          "type": "uint256"
        },
        {
          "name": "_adminRate",
          "type": "uint256"
        },
        {
          "name": "_relayAddress",
          "type": "address"
        }
      ],
      "payable": false,
      "stateMutability": "nonpayable",
      "type": "constructor"
    },
    {
      "anonymous": false,
      "inputs": [
        {
          "indexed": true,
          "name": "identity",
          "type": "address"
        },
        {
          "indexed": true,
          "name": "creator",
          "type": "address"
        },
        {
          "indexed": false,
          "name": "owner",
          "type": "address"
        },
        {
          "indexed": true,
          "name": "recoveryKey",
          "type": "address"
        }
      ],
      "name": "LogIdentityCreated",
      "type": "event"
    },
    {
      "anonymous": false,
      "inputs": [
        {
          "indexed": true,
          "name": "identity",
          "type": "address"
        },
        {
          "indexed": true,
          "name": "owner",
          "type": "address"
        },
        {
          "indexed": false,
          "name": "instigator",
          "type": "address"
        }
      ],
      "name": "LogOwnerAdded",
      "type": "event"
    },
    {
      "anonymous": false,
      "inputs": [
        {
          "indexed": true,
          "name": "identity",
          "type": "address"
        },
        {
          "indexed": true,
          "name": "owner",
          "type": "address"
        },
        {
          "indexed": false,
          "name": "instigator",
          "type": "address"
        }
      ],
      "name": "LogOwnerRemoved",
      "type": "event"
    },
    {
      "anonymous": false,
      "inputs": [
        {
          "indexed": true,
          "name": "identity",
          "type": "address"
        },
        {
          "indexed": true,
          "name": "recoveryKey",
          "type": "address"
        },
        {
          "indexed": false,
          "name": "instigator",
          "type": "address"
        }
      ],
      "name": "LogRecoveryChanged",
      "type": "event"
    },
    {
      "anonymous": false,
      "inputs": [
        {
          "indexed": true,
          "name": "identity",
          "type": "address"
        },
        {
          "indexed": true,
          "name": "newIdManager",
          "type": "address"
        },
        {
          "indexed": false,
          "name": "instigator",
          "type": "address"
        }
      ],
      "name": "LogMigrationInitiated",
      "type": "event"
    },
    {
      "anonymous": false,
      "inputs": [
        {
          "indexed": true,
          "name": "identity",
          "type": "address"
        },
        {
          "indexed": true,
          "name": "newIdManager",
          "type": "address"
        },
        {
          "indexed": false,
          "name": "instigator",
          "type": "address"
        }
      ],
      "name": "LogMigrationCanceled",
      "type": "event"
    },
    {
      "anonymous": false,
      "inputs": [
        {
          "indexed": true,
          "name": "identity",
          "type": "address"
        },
        {
          "indexed": true,
          "name": "newIdManager",
          "type": "address"
        },
        {
          "indexed": false,
          "name": "instigator",
          "type": "address"
        }
      ],
      "name": "LogMigrationFinalized",
      "type": "event"
    },
    {
      "constant": false,
      "inputs": [
        {
          "name": "owner",
          "type": "address"
        },
        {
          "name": "recoveryKey",
          "type": "address"
        }
      ],
      "name": "createIdentity",
      "outputs": [],
      "payable": false,
      "stateMutability": "nonpayable",
      "type": "function"
    },
    {
      "constant": false,
      "inputs": [
        {
          "name": "owner",
          "type": "address"
        },
        {
          "name": "recoveryKey",
          "type": "address"
        },
        {
          "name": "destination",
          "type": "address"
        },
        {
          "name": "data",
          "type": "bytes"
        }
      ],
      "name": "createIdentityWithCall",
      "outputs": [],
      "payable": false,
      "stateMutability": "nonpayable",
      "type": "function"
    },
    {
      "constant": false,
      "inputs": [
        {
          "name": "owner",
          "type": "address"
        },
        {
          "name": "recoveryKey",
          "type": "address"
        }
      ],
      "name": "registerIdentity",
      "outputs": [],
      "payable": false,
      "stateMutability": "nonpayable",
      "type": "function"
    },
    {
      "constant": false,
      "inputs": [
        {
          "name": "sender",
          "type": "address"
        },
        {
          "name": "identity",
          "type": "address"
        },
        {
          "name": "destination",
          "type": "address"
        },
        {
          "name": "value",
          "type": "uint256"
        },
        {
          "name": "data",
          "type": "bytes"
        }
      ],
      "name": "forwardTo",
      "outputs": [],
      "payable": false,
      "stateMutability": "nonpayable",
      "type": "function"
    },
    {
      "constant": false,
      "inputs": [
        {
          "name": "sender",
          "type": "address"
        },
        {
          "name": "identity",
          "type": "address"
        },
        {
          "name": "newOwner",
          "type": "address"
        }
      ],
      "name": "addOwner",
      "outputs": [],
      "payable": false,
      "stateMutability": "nonpayable",
      "type": "function"
    },
    {
      "constant": false,
      "inputs": [
        {
          "name": "sender",
          "type": "address"
        },
        {
          "name": "identity",
          "type": "address"
        },
        {
          "name": "newOwner",
          "type": "address"
        }
      ],
      "name": "addOwnerFromRecovery",
      "outputs": [],
      "payable": false,
      "stateMutability": "nonpayable",
      "type": "function"
    },
    {
      "constant": false,
      "inputs": [
        {
          "name": "sender",
          "type": "address"
        },
        {
          "name": "identity",
          "type": "address"
        },
        {
          "name": "owner",
          "type": "address"
        }
      ],
      "name": "removeOwner",
      "outputs": [],
      "payable": false,
      "stateMutability": "nonpayable",
      "type": "function"
    },
    {
      "constant": false,
      "inputs": [
        {
          "name": "sender",
          "type": "address"
        },
        {
          "name": "identity",
          "type": "address"
        },
        {
          "name": "recoveryKey",
          "type": "address"
        }
      ],
      "name": "changeRecovery",
      "outputs": [],
      "payable": false,
      "stateMutability": "nonpayable",
      "type": "function"
    },
    {
      "constant": false,
      "inputs": [
        {
          "name": "sender",
          "type": "address"
        },
        {
          "name": "identity",
          "type": "address"
        },
        {
          "name": "newIdManager",
          "type": "address"
        }
      ],
      "name": "initiateMigration",
      "outputs": [],
      "payable": false,
      "stateMutability": "nonpayable",
      "type": "function"
    },
    {
      "constant": false,
      "inputs": [
        {
          "name": "sender",
          "type": "address"
        },
        {
          "name": "identity",
          "type": "address"
        }
      ],
      "name": "cancelMigration",
      "outputs": [],
      "payable": false,
      "stateMutability": "nonpayable",
      "type": "function"
    },
    {
      "constant": false,
      "inputs": [
        {
          "name": "sender",
          "type": "address"
        },
        {
          "name": "identity",
          "type": "address"
        }
      ],
      "name": "finalizeMigration",
      "outputs": [],
      "payable": false,
      "stateMutability": "nonpayable",
      "type": "function"
    },
    {
      "constant": true,
      "inputs": [
        {
          "name": "identity",
          "type": "address"
        },
        {
          "name": "owner",
          "type": "address"
        }
      ],
      "name": "isOwner",
      "outputs": [
        {
          "name": "",
          "type": "bool"
        }
      ],
      "payable": false,
      "stateMutability": "view",
      "type": "function"
    },
    {
      "constant": true,
      "inputs": [
        {
          "name": "identity",
          "type": "address"
        },
        {
          "name": "owner",
          "type": "address"
        }
      ],
      "name": "isOlderOwner",
      "outputs": [
        {
          "name": "",
          "type": "bool"
        }
      ],
      "payable": false,
      "stateMutability": "view",
      "type": "function"
    },
    {
      "constant": true,
      "inputs": [
        {
          "name": "identity",
          "type": "address"
        },
        {
          "name": "recoveryKey",
          "type": "address"
        }
      ],
      "name": "isRecovery",
      "outputs": [
        {
          "name": "",
          "type": "bool"
        }
      ],
      "payable": false,
      "stateMutability": "view",
      "type": "function"
    }
  ],
  "bytecode": "0x6060604052341561000f57600080fd5b604051608080612eb48339810160405280805190602001909190805190602001909190805190602001909190805190602001909190505083831015151561005557600080fd5b82600081905550836001819055508160028190555080600360006101000a81548173ffffffffffffffffffffffffffffffffffffffff021916908373ffffffffffffffffffffffffffffffffffffffff16021790555050505050612df6806100be6000396000f3006060604052600436106100e6576000357c0100000000000000000000000000000000000000000000000000000000900463ffffffff16806311fe12b3146100eb5780631a45fac71461015b5780631e2629e1146101d25780633061e0ef1461024957806332967ea0146102c05780633c8ac88e14610330578063422e33f3146103ea578063701b882614610463578063754fd35214610526578063781f5a831461059d5780637ddc02d4146105f5578063a596703914610665578063a949c637146106bd578063c7576ed414610734578063c778427b1461078c578063d10e73ab146107d9575b600080fd5b34156100f657600080fd5b610141600480803573ffffffffffffffffffffffffffffffffffffffff1690602001909190803573ffffffffffffffffffffffffffffffffffffffff16906020019091905050610831565b604051808215151515815260200191505060405180910390f35b341561016657600080fd5b6101d0600480803573ffffffffffffffffffffffffffffffffffffffff1690602001909190803573ffffffffffffffffffffffffffffffffffffffff1690602001909190803573ffffffffffffffffffffffffffffffffffffffff169060200190919050506108c9565b005b34156101dd57600080fd5b610247600480803573ffffffffffffffffffffffffffffffffffffffff1690602001909190803573ffffffffffffffffffffffffffffffffffffffff1690602001909190803573ffffffffffffffffffffffffffffffffffffffff16906020019091905050610bb2565b005b341561025457600080fd5b6102be600480803573ffffffffffffffffffffffffffffffffffffffff1690602001909190803573ffffffffffffffffffffffffffffffffffffffff1690602001909190803573ffffffffffffffffffffffffffffffffffffffff16906020019091905050610d8f565b005b34156102cb57600080fd5b610316600480803573ffffffffffffffffffffffffffffffffffffffff1690602001909190803573ffffffffffffffffffffffffffffffffffffffff16906020019091905050611079565b604051808215151515815260200191505060405180910390f35b341561033b57600080fd5b6103e8600480803573ffffffffffffffffffffffffffffffffffffffff1690602001909190803573ffffffffffffffffffffffffffffffffffffffff1690602001909190803573ffffffffffffffffffffffffffffffffffffffff1690602001909190803590602001908201803590602001908080601f0160208091040260200160405190810160405280939291908181526020018383808284378201915050505050509190505061118e565b005b34156103f557600080fd5b610421600480803573ffffffffffffffffffffffffffffffffffffffff169060200190919050506114c4565b604051808273ffffffffffffffffffffffffffffffffffffffff1673ffffffffffffffffffffffffffffffffffffffff16815260200191505060405180910390f35b341561046e57600080fd5b610524600480803573ffffffffffffffffffffffffffffffffffffffff1690602001909190803573ffffffffffffffffffffffffffffffffffffffff1690602001909190803573ffffffffffffffffffffffffffffffffffffffff1690602001909190803590602001909190803590602001908201803590602001908080601f016020809104026020016040519081016040528093929190818152602001838380828437820191505050505050919050506114f7565b005b341561053157600080fd5b61059b600480803573ffffffffffffffffffffffffffffffffffffffff1690602001909190803573ffffffffffffffffffffffffffffffffffffffff1690602001909190803573ffffffffffffffffffffffffffffffffffffffff169060200190919050506116a6565b005b34156105a857600080fd5b6105f3600480803573ffffffffffffffffffffffffffffffffffffffff1690602001909190803573ffffffffffffffffffffffffffffffffffffffff169060200190919050506119ef565b005b341561060057600080fd5b61064b600480803573ffffffffffffffffffffffffffffffffffffffff1690602001909190803573ffffffffffffffffffffffffffffffffffffffff16906020019091905050611c60565b604051808215151515815260200191505060405180910390f35b341561067057600080fd5b6106bb600480803573ffffffffffffffffffffffffffffffffffffffff1690602001909190803573ffffffffffffffffffffffffffffffffffffffff16906020019091905050611d75565b005b34156106c857600080fd5b610732600480803573ffffffffffffffffffffffffffffffffffffffff1690602001909190803573ffffffffffffffffffffffffffffffffffffffff1690602001909190803573ffffffffffffffffffffffffffffffffffffffff16906020019091905050611f99565b005b341561073f57600080fd5b61078a600480803573ffffffffffffffffffffffffffffffffffffffff1690602001909190803573ffffffffffffffffffffffffffffffffffffffff16906020019091905050612262565b005b341561079757600080fd5b6107c3600480803573ffffffffffffffffffffffffffffffffffffffff169060200190919050506126b3565b6040518082815260200191505060405180910390f35b34156107e457600080fd5b61082f600480803573ffffffffffffffffffffffffffffffffffffffff1690602001909190803573ffffffffffffffffffffffffffffffffffffffff169060200190919050506126cb565b005b60008173ffffffffffffffffffffffffffffffffffffffff16600560008573ffffffffffffffffffffffffffffffffffffffff1673ffffffffffffffffffffffffffffffffffffffff16815260200190815260200160002060009054906101000a900473ffffffffffffffffffffffffffffffffffffffff1673ffffffffffffffffffffffffffffffffffffffff1614905092915050565b600360009054906101000a900473ffffffffffffffffffffffffffffffffffffffff1673ffffffffffffffffffffffffffffffffffffffff163373ffffffffffffffffffffffffffffffffffffffff16148061092a5750610929336128db565b5b151561093557600080fd5b81836109418282611079565b151561094c57600080fd5b83856002544203600660008473ffffffffffffffffffffffffffffffffffffffff1673ffffffffffffffffffffffffffffffffffffffff16815260200190815260200160002060008373ffffffffffffffffffffffffffffffffffffffff1673ffffffffffffffffffffffffffffffffffffffff168152602001908152602001600020541015156109dc57600080fd5b42600660008473ffffffffffffffffffffffffffffffffffffffff1673ffffffffffffffffffffffffffffffffffffffff16815260200190815260200160002060008373ffffffffffffffffffffffffffffffffffffffff1673ffffffffffffffffffffffffffffffffffffffff168152602001908152602001600020819055508473ffffffffffffffffffffffffffffffffffffffff168773ffffffffffffffffffffffffffffffffffffffff1614151515610a9857600080fd5b600460008773ffffffffffffffffffffffffffffffffffffffff1673ffffffffffffffffffffffffffffffffffffffff16815260200190815260200160002060008673ffffffffffffffffffffffffffffffffffffffff1673ffffffffffffffffffffffffffffffffffffffff168152602001908152602001600020600090558473ffffffffffffffffffffffffffffffffffffffff168673ffffffffffffffffffffffffffffffffffffffff167f5e159cd4447854ae8b4aa048f91c8daad986faab696c3685030e1a5e5a4e8ced89604051808273ffffffffffffffffffffffffffffffffffffffff1673ffffffffffffffffffffffffffffffffffffffff16815260200191505060405180910390a350505050505050565b600360009054906101000a900473ffffffffffffffffffffffffffffffffffffffff1673ffffffffffffffffffffffffffffffffffffffff163373ffffffffffffffffffffffffffffffffffffffff161480610c135750610c12336128db565b5b1515610c1e57600080fd5b8183610c2a8282611079565b1515610c3557600080fd5b42600760008673ffffffffffffffffffffffffffffffffffffffff1673ffffffffffffffffffffffffffffffffffffffff1681526020019081526020016000208190555082600860008673ffffffffffffffffffffffffffffffffffffffff1673ffffffffffffffffffffffffffffffffffffffff16815260200190815260200160002060006101000a81548173ffffffffffffffffffffffffffffffffffffffff021916908373ffffffffffffffffffffffffffffffffffffffff1602179055508273ffffffffffffffffffffffffffffffffffffffff168473ffffffffffffffffffffffffffffffffffffffff167fb7b4557c664a8a4a9a57f5e00f216de044a96f96fc84b70eaa6bd48cb078454187604051808273ffffffffffffffffffffffffffffffffffffffff1673ffffffffffffffffffffffffffffffffffffffff16815260200191505060405180910390a35050505050565b600360009054906101000a900473ffffffffffffffffffffffffffffffffffffffff1673ffffffffffffffffffffffffffffffffffffffff163373ffffffffffffffffffffffffffffffffffffffff161480610df05750610def336128db565b5b1515610dfb57600080fd5b8183610e078282611079565b1515610e1257600080fd5b83856002544203600660008473ffffffffffffffffffffffffffffffffffffffff1673ffffffffffffffffffffffffffffffffffffffff16815260200190815260200160002060008373ffffffffffffffffffffffffffffffffffffffff1673ffffffffffffffffffffffffffffffffffffffff16815260200190815260200160002054101515610ea257600080fd5b42600660008473ffffffffffffffffffffffffffffffffffffffff1673ffffffffffffffffffffffffffffffffffffffff16815260200190815260200160002060008373ffffffffffffffffffffffffffffffffffffffff1673ffffffffffffffffffffffffffffffffffffffff1681526020019081526020016000208190555084600073ffffffffffffffffffffffffffffffffffffffff168173ffffffffffffffffffffffffffffffffffffffff1614151515610f6057600080fd5b85600560008973ffffffffffffffffffffffffffffffffffffffff1673ffffffffffffffffffffffffffffffffffffffff16815260200190815260200160002060006101000a81548173ffffffffffffffffffffffffffffffffffffffff021916908373ffffffffffffffffffffffffffffffffffffffff1602179055508573ffffffffffffffffffffffffffffffffffffffff168773ffffffffffffffffffffffffffffffffffffffff167fbd1ad05c16aafa75ac8c1d6b8264f47ad9f3045596f667c9476f3f749c0187098a604051808273ffffffffffffffffffffffffffffffffffffffff1673ffffffffffffffffffffffffffffffffffffffff16815260200191505060405180910390a35050505050505050565b600080600460008573ffffffffffffffffffffffffffffffffffffffff1673ffffffffffffffffffffffffffffffffffffffff16815260200190815260200160002060008473ffffffffffffffffffffffffffffffffffffffff1673ffffffffffffffffffffffffffffffffffffffff16815260200190815260200160002054118015611186575042600054600460008673ffffffffffffffffffffffffffffffffffffffff1673ffffffffffffffffffffffffffffffffffffffff16815260200190815260200160002060008573ffffffffffffffffffffffffffffffffffffffff1673ffffffffffffffffffffffffffffffffffffffff168152602001908152602001600020540111155b905092915050565b600083600073ffffffffffffffffffffffffffffffffffffffff168173ffffffffffffffffffffffffffffffffffffffff16141515156111cd57600080fd5b6111d5612918565b604051809103906000f08015156111eb57600080fd5b91506000544203600460008473ffffffffffffffffffffffffffffffffffffffff1673ffffffffffffffffffffffffffffffffffffffff16815260200190815260200160002060008873ffffffffffffffffffffffffffffffffffffffff1673ffffffffffffffffffffffffffffffffffffffff1681526020019081526020016000208190555084600560008473ffffffffffffffffffffffffffffffffffffffff1673ffffffffffffffffffffffffffffffffffffffff16815260200190815260200160002060006101000a81548173ffffffffffffffffffffffffffffffffffffffff021916908373ffffffffffffffffffffffffffffffffffffffff1602179055508473ffffffffffffffffffffffffffffffffffffffff163373ffffffffffffffffffffffffffffffffffffffff168373ffffffffffffffffffffffffffffffffffffffff167f14e580ab5cd452b772e031536a7c893ec705152c17b3665c6671b382c3ee626689604051808273ffffffffffffffffffffffffffffffffffffffff1673ffffffffffffffffffffffffffffffffffffffff16815260200191505060405180910390a48173ffffffffffffffffffffffffffffffffffffffff1663d7f31eb9856000866040518463ffffffff167c0100000000000000000000000000000000000000000000000000000000028152600401808473ffffffffffffffffffffffffffffffffffffffff1673ffffffffffffffffffffffffffffffffffffffff16815260200183815260200180602001828103825283818151815260200191508051906020019080838360005b8381101561145b578082015181840152602081019050611440565b50505050905090810190601f1680156114885780820380516001836020036101000a031916815260200191505b50945050505050600060405180830381600087803b15156114a857600080fd5b6102c65a03f115156114b957600080fd5b505050505050505050565b60086020528060005260406000206000915054906101000a900473ffffffffffffffffffffffffffffffffffffffff1681565b600360009054906101000a900473ffffffffffffffffffffffffffffffffffffffff1673ffffffffffffffffffffffffffffffffffffffff163373ffffffffffffffffffffffffffffffffffffffff1614806115585750611557336128db565b5b151561156357600080fd5b838561156f8282611c60565b151561157a57600080fd5b8573ffffffffffffffffffffffffffffffffffffffff1663d7f31eb98686866040518463ffffffff167c0100000000000000000000000000000000000000000000000000000000028152600401808473ffffffffffffffffffffffffffffffffffffffff1673ffffffffffffffffffffffffffffffffffffffff16815260200183815260200180602001828103825283818151815260200191508051906020019080838360005b8381101561163c578082015181840152602081019050611621565b50505050905090810190601f1680156116695780820380516001836020036101000a031916815260200191505b50945050505050600060405180830381600087803b151561168957600080fd5b6102c65a03f1151561169a57600080fd5b50505050505050505050565b600360009054906101000a900473ffffffffffffffffffffffffffffffffffffffff1673ffffffffffffffffffffffffffffffffffffffff163373ffffffffffffffffffffffffffffffffffffffff1614806117075750611706336128db565b5b151561171257600080fd5b81838073ffffffffffffffffffffffffffffffffffffffff16600560008473ffffffffffffffffffffffffffffffffffffffff1673ffffffffffffffffffffffffffffffffffffffff16815260200190815260200160002060009054906101000a900473ffffffffffffffffffffffffffffffffffffffff1673ffffffffffffffffffffffffffffffffffffffff161415156117ad57600080fd5b83856002544203600660008473ffffffffffffffffffffffffffffffffffffffff1673ffffffffffffffffffffffffffffffffffffffff16815260200190815260200160002060008373ffffffffffffffffffffffffffffffffffffffff1673ffffffffffffffffffffffffffffffffffffffff1681526020019081526020016000205410151561183d57600080fd5b42600660008473ffffffffffffffffffffffffffffffffffffffff1673ffffffffffffffffffffffffffffffffffffffff16815260200190815260200160002060008373ffffffffffffffffffffffffffffffffffffffff1673ffffffffffffffffffffffffffffffffffffffff168152602001908152602001600020819055506118c88686611c60565b1515156118d457600080fd5b42600460008873ffffffffffffffffffffffffffffffffffffffff1673ffffffffffffffffffffffffffffffffffffffff16815260200190815260200160002060008773ffffffffffffffffffffffffffffffffffffffff1673ffffffffffffffffffffffffffffffffffffffff168152602001908152602001600020819055508473ffffffffffffffffffffffffffffffffffffffff168673ffffffffffffffffffffffffffffffffffffffff167f8672e8532f3edff41d3acf0cd4be6ff900e427461b81d094f0197354471cb3c689604051808273ffffffffffffffffffffffffffffffffffffffff1673ffffffffffffffffffffffffffffffffffffffff16815260200191505060405180910390a350505050505050565b80600073ffffffffffffffffffffffffffffffffffffffff168173ffffffffffffffffffffffffffffffffffffffff1614151515611a2c57600080fd5b6000600560003373ffffffffffffffffffffffffffffffffffffffff1673ffffffffffffffffffffffffffffffffffffffff16815260200190815260200160002060009054906101000a900473ffffffffffffffffffffffffffffffffffffffff1673ffffffffffffffffffffffffffffffffffffffff16141515611ab057600080fd5b6000544203600460003373ffffffffffffffffffffffffffffffffffffffff1673ffffffffffffffffffffffffffffffffffffffff16815260200190815260200160002060008573ffffffffffffffffffffffffffffffffffffffff1673ffffffffffffffffffffffffffffffffffffffff1681526020019081526020016000208190555081600560003373ffffffffffffffffffffffffffffffffffffffff1673ffffffffffffffffffffffffffffffffffffffff16815260200190815260200160002060006101000a81548173ffffffffffffffffffffffffffffffffffffffff021916908373ffffffffffffffffffffffffffffffffffffffff1602179055508173ffffffffffffffffffffffffffffffffffffffff163373ffffffffffffffffffffffffffffffffffffffff163373ffffffffffffffffffffffffffffffffffffffff167f14e580ab5cd452b772e031536a7c893ec705152c17b3665c6671b382c3ee626686604051808273ffffffffffffffffffffffffffffffffffffffff1673ffffffffffffffffffffffffffffffffffffffff16815260200191505060405180910390a4505050565b600080600460008573ffffffffffffffffffffffffffffffffffffffff1673ffffffffffffffffffffffffffffffffffffffff16815260200190815260200160002060008473ffffffffffffffffffffffffffffffffffffffff1673ffffffffffffffffffffffffffffffffffffffff16815260200190815260200160002054118015611d6d575042600154600460008673ffffffffffffffffffffffffffffffffffffffff1673ffffffffffffffffffffffffffffffffffffffff16815260200190815260200160002060008573ffffffffffffffffffffffffffffffffffffffff1673ffffffffffffffffffffffffffffffffffffffff168152602001908152602001600020540111155b905092915050565b6000600360009054906101000a900473ffffffffffffffffffffffffffffffffffffffff1673ffffffffffffffffffffffffffffffffffffffff163373ffffffffffffffffffffffffffffffffffffffff161480611dd85750611dd7336128db565b5b1515611de357600080fd5b8183611def8282611c60565b1515611dfa57600080fd5b600860008573ffffffffffffffffffffffffffffffffffffffff1673ffffffffffffffffffffffffffffffffffffffff16815260200190815260200160002060009054906101000a900473ffffffffffffffffffffffffffffffffffffffff169250600760008573ffffffffffffffffffffffffffffffffffffffff1673ffffffffffffffffffffffffffffffffffffffff16815260200190815260200160002060009055600860008573ffffffffffffffffffffffffffffffffffffffff1673ffffffffffffffffffffffffffffffffffffffff16815260200190815260200160002060006101000a81549073ffffffffffffffffffffffffffffffffffffffff02191690558273ffffffffffffffffffffffffffffffffffffffff168473ffffffffffffffffffffffffffffffffffffffff167f60e805c5650597523aba29fb00a59c856d925c672bce1ea7d579f03aef3a10ce87604051808273ffffffffffffffffffffffffffffffffffffffff1673ffffffffffffffffffffffffffffffffffffffff16815260200191505060405180910390a35050505050565b600360009054906101000a900473ffffffffffffffffffffffffffffffffffffffff1673ffffffffffffffffffffffffffffffffffffffff163373ffffffffffffffffffffffffffffffffffffffff161480611ffa5750611ff9336128db565b5b151561200557600080fd5b81836120118282611079565b151561201c57600080fd5b83856002544203600660008473ffffffffffffffffffffffffffffffffffffffff1673ffffffffffffffffffffffffffffffffffffffff16815260200190815260200160002060008373ffffffffffffffffffffffffffffffffffffffff1673ffffffffffffffffffffffffffffffffffffffff168152602001908152602001600020541015156120ac57600080fd5b42600660008473ffffffffffffffffffffffffffffffffffffffff1673ffffffffffffffffffffffffffffffffffffffff16815260200190815260200160002060008373ffffffffffffffffffffffffffffffffffffffff1673ffffffffffffffffffffffffffffffffffffffff168152602001908152602001600020819055506121378686611c60565b15151561214357600080fd5b6001544203600460008873ffffffffffffffffffffffffffffffffffffffff1673ffffffffffffffffffffffffffffffffffffffff16815260200190815260200160002060008773ffffffffffffffffffffffffffffffffffffffff1673ffffffffffffffffffffffffffffffffffffffff168152602001908152602001600020819055508473ffffffffffffffffffffffffffffffffffffffff168673ffffffffffffffffffffffffffffffffffffffff167f8672e8532f3edff41d3acf0cd4be6ff900e427461b81d094f0197354471cb3c689604051808273ffffffffffffffffffffffffffffffffffffffff1673ffffffffffffffffffffffffffffffffffffffff16815260200191505060405180910390a350505050505050565b6000600360009054906101000a900473ffffffffffffffffffffffffffffffffffffffff1673ffffffffffffffffffffffffffffffffffffffff163373ffffffffffffffffffffffffffffffffffffffff1614806122c557506122c4336128db565b5b15156122d057600080fd5b81836122dc8282611079565b15156122e757600080fd5b6000600760008673ffffffffffffffffffffffffffffffffffffffff1673ffffffffffffffffffffffffffffffffffffffff1681526020019081526020016000205414158015612379575042600054600760008773ffffffffffffffffffffffffffffffffffffffff1673ffffffffffffffffffffffffffffffffffffffff1681526020019081526020016000205401105b151561238457600080fd5b600860008573ffffffffffffffffffffffffffffffffffffffff1673ffffffffffffffffffffffffffffffffffffffff16815260200190815260200160002060009054906101000a900473ffffffffffffffffffffffffffffffffffffffff169250600760008573ffffffffffffffffffffffffffffffffffffffff1673ffffffffffffffffffffffffffffffffffffffff16815260200190815260200160002060009055600860008573ffffffffffffffffffffffffffffffffffffffff1673ffffffffffffffffffffffffffffffffffffffff16815260200190815260200160002060006101000a81549073ffffffffffffffffffffffffffffffffffffffff02191690558373ffffffffffffffffffffffffffffffffffffffff16631a695230846040518263ffffffff167c0100000000000000000000000000000000000000000000000000000000028152600401808273ffffffffffffffffffffffffffffffffffffffff1673ffffffffffffffffffffffffffffffffffffffff168152602001915050600060405180830381600087803b151561252557600080fd5b6102c65a03f1151561253657600080fd5b505050600560008573ffffffffffffffffffffffffffffffffffffffff1673ffffffffffffffffffffffffffffffffffffffff16815260200190815260200160002060006101000a81549073ffffffffffffffffffffffffffffffffffffffff0219169055600460008573ffffffffffffffffffffffffffffffffffffffff1673ffffffffffffffffffffffffffffffffffffffff16815260200190815260200160002060008673ffffffffffffffffffffffffffffffffffffffff1673ffffffffffffffffffffffffffffffffffffffff168152602001908152602001600020600090558273ffffffffffffffffffffffffffffffffffffffff168473ffffffffffffffffffffffffffffffffffffffff167f565ed5a2d5e196b82acb6ff1149b699c2b13169c7d34412d736d3c380de64f3187604051808273ffffffffffffffffffffffffffffffffffffffff1673ffffffffffffffffffffffffffffffffffffffff16815260200191505060405180910390a35050505050565b60076020528060005260406000206000915090505481565b600081600073ffffffffffffffffffffffffffffffffffffffff168173ffffffffffffffffffffffffffffffffffffffff161415151561270a57600080fd5b612712612918565b604051809103906000f080151561272857600080fd5b91506000544203600460008473ffffffffffffffffffffffffffffffffffffffff1673ffffffffffffffffffffffffffffffffffffffff16815260200190815260200160002060008673ffffffffffffffffffffffffffffffffffffffff1673ffffffffffffffffffffffffffffffffffffffff1681526020019081526020016000208190555082600560008473ffffffffffffffffffffffffffffffffffffffff1673ffffffffffffffffffffffffffffffffffffffff16815260200190815260200160002060006101000a81548173ffffffffffffffffffffffffffffffffffffffff021916908373ffffffffffffffffffffffffffffffffffffffff1602179055508273ffffffffffffffffffffffffffffffffffffffff163373ffffffffffffffffffffffffffffffffffffffff168373ffffffffffffffffffffffffffffffffffffffff167f14e580ab5cd452b772e031536a7c893ec705152c17b3665c6671b382c3ee626687604051808273ffffffffffffffffffffffffffffffffffffffff1673ffffffffffffffffffffffffffffffffffffffff16815260200191505060405180910390a450505050565b60006024600036905010156128f35760009050612913565b73ffffffffffffffffffffffffffffffffffffffff600435811683149150505b919050565b6040516104a2806129298339019056006060604052336000806101000a81548173ffffffffffffffffffffffffffffffffffffffff021916908373ffffffffffffffffffffffffffffffffffffffff16021790555061044f806100536000396000f300606060405260043610610062576000357c0100000000000000000000000000000000000000000000000000000000900463ffffffff1680631a695230146100b25780632f54bf6e146100eb5780638da5cb5b1461013c578063d7f31eb914610191575b3373ffffffffffffffffffffffffffffffffffffffff167f88a5966d370b9919b20f3e2c13ff65706f196a4e32cc2c12bf57088f88525874346040518082815260200191505060405180910390a2005b34156100bd57600080fd5b6100e9600480803573ffffffffffffffffffffffffffffffffffffffff16906020019091905050610216565b005b34156100f657600080fd5b610122600480803573ffffffffffffffffffffffffffffffffffffffff169060200190919050506102a3565b604051808215151515815260200191505060405180910390f35b341561014757600080fd5b61014f6102fc565b604051808273ffffffffffffffffffffffffffffffffffffffff1673ffffffffffffffffffffffffffffffffffffffff16815260200191505060405180910390f35b341561019c57600080fd5b610214600480803573ffffffffffffffffffffffffffffffffffffffff1690602001909190803590602001909190803590602001908201803590602001908080601f01602080910402602001604051908101604052809392919081815260200183838082843782019150505050505091905050610321565b005b61021f336102a3565b151561022a57600080fd5b3073ffffffffffffffffffffffffffffffffffffffff168173ffffffffffffffffffffffffffffffffffffffff161415156102a057806000806101000a81548173ffffffffffffffffffffffffffffffffffffffff021916908373ffffffffffffffffffffffffffffffffffffffff1602179055505b50565b60008060009054906101000a900473ffffffffffffffffffffffffffffffffffffffff1673ffffffffffffffffffffffffffffffffffffffff168273ffffffffffffffffffffffffffffffffffffffff16149050919050565b6000809054906101000a900473ffffffffffffffffffffffffffffffffffffffff1681565b61032a336102a3565b151561033557600080fd5b61034083838361040b565b151561034b57600080fd5b8273ffffffffffffffffffffffffffffffffffffffff167fc1de93dfa06362c6a616cde73ec17d116c0d588dd1df70f27f91b500de207c4183836040518083815260200180602001828103825283818151815260200191508051906020019080838360005b838110156103cb5780820151818401526020810190506103b0565b50505050905090810190601f1680156103f85780820380516001836020036101000a031916815260200191505b50935050505060405180910390a2505050565b600080600083516020850186885af1905093925050505600a165627a7a72305820e908e574d467e2e00a1e3c45ea9a34808d8756b03f76f40baff1d13af15771fd0029a165627a7a723058208ed5804a410839b5f2ac47e9a2188a9d630b32ca45ef8a0bdfa53055ab8f033a0029",
  "source": "pragma solidity 0.4.19;\nimport \"./Proxy.sol\";\n\n\ncontract MetaIdentityManager {\n    uint adminTimeLock;\n    uint userTimeLock;\n    uint adminRate;\n    address relay;\n\n    event LogIdentityCreated(\n        address indexed identity,\n        address indexed creator,\n        address owner,\n        address indexed recoveryKey);\n\n    event LogOwnerAdded(\n        address indexed identity,\n        address indexed owner,\n        address instigator);\n\n    event LogOwnerRemoved(\n        address indexed identity,\n        address indexed owner,\n        address instigator);\n\n    event LogRecoveryChanged(\n        address indexed identity,\n        address indexed recoveryKey,\n        address instigator);\n\n    event LogMigrationInitiated(\n        address indexed identity,\n        address indexed newIdManager,\n        address instigator);\n\n    event LogMigrationCanceled(\n        address indexed identity,\n        address indexed newIdManager,\n        address instigator);\n\n    event LogMigrationFinalized(\n        address indexed identity,\n        address indexed newIdManager,\n        address instigator);\n\n    mapping(address => mapping(address => uint)) owners;\n    mapping(address => address) recoveryKeys;\n    mapping(address => mapping(address => uint)) limiter;\n    mapping(address => uint) public migrationInitiated;\n    mapping(address => address) public migrationNewAddress;\n\n    modifier onlyAuthorized() {\n        require(msg.sender == relay || checkMessageData(msg.sender));\n        _;\n    }\n\n    modifier onlyOwner(address identity, address sender) {\n        require(isOwner(identity, sender));\n        _;\n    }\n\n    modifier onlyOlderOwner(address identity, address sender) {\n        require(isOlderOwner(identity, sender));\n        _;\n    }\n\n    modifier onlyRecovery(address identity, address sender) {\n        require(recoveryKeys[identity] == sender);\n        _;\n    }\n\n    modifier rateLimited(Proxy identity, address sender) {\n        require(limiter[identity][sender] < (now - adminRate));\n        limiter[identity][sender] = now;\n        _;\n    }\n\n    modifier validAddress(address addr) { //protects against some weird attacks\n        require(addr != address(0));\n        _;\n    }\n\n    /// @dev Contract constructor sets initial timelocks and meta-tx relay address\n    /// @param _userTimeLock Time before new owner added by recovery can control proxy\n    /// @param _adminTimeLock Time before new owner can add/remove owners\n    /// @param _adminRate Time period used for rate limiting a given key for admin functionality\n    /// @param _relayAddress Address of meta transaction relay contract\n    function MetaIdentityManager(uint _userTimeLock, uint _adminTimeLock, uint _adminRate, address _relayAddress) {\n        require(_adminTimeLock >= _userTimeLock);\n        adminTimeLock = _adminTimeLock;\n        userTimeLock = _userTimeLock;\n        adminRate = _adminRate;\n        relay = _relayAddress;\n    }\n\n    /// @dev Creates a new proxy contract for an owner and recovery\n    /// @param owner Key who can use this contract to control proxy. Given full power\n    /// @param recoveryKey Key of recovery network or address from seed to recovery proxy\n    /// Gas cost of ~300,000\n    function createIdentity(address owner, address recoveryKey) public validAddress(recoveryKey) {\n        Proxy identity = new Proxy();\n        owners[identity][owner] = now - adminTimeLock; // This is to ensure original owner has full power from day one\n        recoveryKeys[identity] = recoveryKey;\n        LogIdentityCreated(identity, msg.sender, owner,  recoveryKey);\n    }\n\n    /// @dev Creates a new proxy contract for an owner and recovery and allows an initial forward call which would be to set the registry in our case\n    /// @param owner Key who can use this contract to control proxy. Given full power\n    /// @param recoveryKey Key of recovery network or address from seed to recovery proxy\n    /// @param destination Address of contract to be called after proxy is created\n    /// @param data of function to be called at the destination contract\n    function createIdentityWithCall(address owner, address recoveryKey, address destination, bytes data) public validAddress(recoveryKey) {\n        Proxy identity = new Proxy();\n        owners[identity][owner] = now - adminTimeLock; // This is to ensure original owner has full power from day one\n        recoveryKeys[identity] = recoveryKey;\n        LogIdentityCreated(identity, msg.sender, owner,  recoveryKey);\n        identity.forward(destination, 0, data);\n    }\n\n    /// @dev Allows a user to transfer control of existing proxy to this contract. Must come through proxy\n    /// @param owner Key who can use this contract to control proxy. Given full power\n    /// @param recoveryKey Key of recovery network or address from seed to recovery proxy\n    /// Note: User must change owner of proxy to this contract after calling this\n    function registerIdentity(address owner, address recoveryKey) public validAddress(recoveryKey) {\n        require(recoveryKeys[msg.sender] == 0); // Deny any funny business\n        owners[msg.sender][owner] = now - adminTimeLock; // Owner has full power from day one\n        recoveryKeys[msg.sender] = recoveryKey;\n        LogIdentityCreated(msg.sender, msg.sender, owner, recoveryKey);\n    }\n\n    /// @dev Allows a user to forward a call through their proxy.\n    function forwardTo(address sender, Proxy identity, address destination, uint value, bytes data) public\n        onlyAuthorized\n        onlyOwner(identity, sender)\n    {\n        identity.forward(destination, value, data);\n    }\n\n    /// @dev Allows an olderOwner to add a new owner instantly\n    function addOwner(address sender, Proxy identity, address newOwner) public\n        onlyAuthorized\n        onlyOlderOwner(identity, sender)\n        rateLimited(identity, sender)\n    {\n        require(!isOwner(identity, newOwner));\n        owners[identity][newOwner] = now - userTimeLock;\n        LogOwnerAdded(identity, newOwner, sender);\n    }\n\n    /// @dev Allows a recoveryKey to add a new owner with userTimeLock waiting time\n    function addOwnerFromRecovery(address sender, Proxy identity, address newOwner) public\n        onlyAuthorized\n        onlyRecovery(identity, sender)\n        rateLimited(identity, sender)\n    {\n        require(!isOwner(identity, newOwner));\n        owners[identity][newOwner] = now;\n        LogOwnerAdded(identity, newOwner, sender);\n    }\n\n    /// @dev Allows an owner to remove another owner instantly\n    function removeOwner(address sender, Proxy identity, address owner) public\n        onlyAuthorized\n        onlyOlderOwner(identity, sender)\n        rateLimited(identity, sender)\n    {\n        // an owner should not be allowed to remove itself\n        require(sender != owner);\n        delete owners[identity][owner];\n        LogOwnerRemoved(identity, owner, sender);\n    }\n\n    /// @dev Allows an owner to change the recoveryKey instantly\n    function changeRecovery(address sender, Proxy identity, address recoveryKey) public\n        onlyAuthorized\n        onlyOlderOwner(identity, sender)\n        rateLimited(identity, sender)\n        validAddress(recoveryKey)\n    {\n        recoveryKeys[identity] = recoveryKey;\n        LogRecoveryChanged(identity, recoveryKey, sender);\n    }\n\n    /// @dev Allows an owner to begin process of transfering proxy to new IdentityManager\n    function initiateMigration(address sender, Proxy identity, address newIdManager) public\n        onlyAuthorized\n        onlyOlderOwner(identity, sender)\n    {\n        migrationInitiated[identity] = now;\n        migrationNewAddress[identity] = newIdManager;\n        LogMigrationInitiated(identity, newIdManager, sender);\n    }\n\n    /// @dev Allows an owner to cancel the process of transfering proxy to new IdentityManager\n    function cancelMigration(address sender, Proxy identity) public\n        onlyAuthorized\n        onlyOwner(identity, sender)\n    {\n        address canceledManager = migrationNewAddress[identity];\n        delete migrationInitiated[identity];\n        delete migrationNewAddress[identity];\n        LogMigrationCanceled(identity, canceledManager, sender);\n    }\n\n    /// @dev Allows an owner to finalize and completly transfer proxy to new IdentityManager\n    /// Note: before transfering to a new address, make sure this address is \"ready to recieve\" the proxy.\n    /// Not doing so risks the proxy becoming stuck.\n    function finalizeMigration(address sender, Proxy identity) onlyAuthorized onlyOlderOwner(identity, sender) {\n        require(migrationInitiated[identity] != 0 && migrationInitiated[identity] + adminTimeLock < now);\n        address newIdManager = migrationNewAddress[identity];\n        delete migrationInitiated[identity];\n        delete migrationNewAddress[identity];\n        identity.transfer(newIdManager);\n        delete recoveryKeys[identity];\n        // We can only delete the owner that we know of. All other owners\n        // needs to be removed before a call to this method.\n        delete owners[identity][sender];\n        LogMigrationFinalized(identity, newIdManager, sender);\n    }\n\n    //Checks that address a is the first input in msg.data.\n    //Has very minimal gas overhead.\n    function checkMessageData(address a) internal constant returns (bool t) {\n        if (msg.data.length < 36) return false;\n        assembly {\n            let mask := 0xFFFFFFFFFFFFFFFFFFFFFFFFFFFFFFFFFFFFFFFF\n            t := eq(a, and(mask, calldataload(4)))\n        }\n    }\n\n    function isOwner(address identity, address owner) public constant returns (bool) {\n        return (owners[identity][owner] > 0 && (owners[identity][owner] + userTimeLock) <= now);\n    }\n\n    function isOlderOwner(address identity, address owner) public constant returns (bool) {\n        return (owners[identity][owner] > 0 && (owners[identity][owner] + adminTimeLock) <= now);\n    }\n\n    function isRecovery(address identity, address recoveryKey) public constant returns (bool) {\n        return recoveryKeys[identity] == recoveryKey;\n    }\n}",
  "sourcePath": "/Users/seanchuang/workspace/blockchain/idhub/idhub-member-system/contracts/MetaIdentityManager.sol",
  "compiler": {
    "name": "solc",
    "version": "0.4.19+commit.c4cbbb05.Emscripten.clang"
  },
  "schemaVersion": "2.0.0",
  "updatedAt": "2018-11-27T02:36:42.877Z"
}