{
  "contractName": "Owned",
  "abi": [
    {
      "constant": true,
      "inputs": [],
      "name": "owner",
      "outputs": [
        {
          "name": "",
          "type": "address"
        }
      ],
      "payable": false,
      "stateMutability": "view",
      "type": "function"
    },
    {
      "inputs": [],
      "payable": false,
      "stateMutability": "nonpayable",
      "type": "constructor"
    },
    {
      "constant": false,
      "inputs": [
        {
          "name": "addr",
          "type": "address"
        }
      ],
      "name": "isOwner",
      "outputs": [
        {
          "name": "",
          "type": "bool"
        }
      ],
      "payable": false,
      "stateMutability": "nonpayable",
      "type": "function"
    },
    {
      "constant": false,
      "inputs": [
        {
          "name": "newOwner",
          "type": "address"
        }
      ],
      "name": "transfer",
      "outputs": [],
      "payable": false,
      "stateMutability": "nonpayable",
      "type": "function"
    }
  ],
  "bytecode": "0x6060604052341561000f57600080fd5b336000806101000a81548173ffffffffffffffffffffffffffffffffffffffff021916908373ffffffffffffffffffffffffffffffffffffffff1602179055506102728061005e6000396000f300606060405260043610610057576000357c0100000000000000000000000000000000000000000000000000000000900463ffffffff1680631a6952301461005c5780632f54bf6e146100955780638da5cb5b146100e6575b600080fd5b341561006757600080fd5b610093600480803573ffffffffffffffffffffffffffffffffffffffff1690602001909190505061013b565b005b34156100a057600080fd5b6100cc600480803573ffffffffffffffffffffffffffffffffffffffff169060200190919050506101c8565b604051808215151515815260200191505060405180910390f35b34156100f157600080fd5b6100f9610221565b604051808273ffffffffffffffffffffffffffffffffffffffff1673ffffffffffffffffffffffffffffffffffffffff16815260200191505060405180910390f35b610144336101c8565b151561014f57600080fd5b3073ffffffffffffffffffffffffffffffffffffffff168173ffffffffffffffffffffffffffffffffffffffff161415156101c557806000806101000a81548173ffffffffffffffffffffffffffffffffffffffff021916908373ffffffffffffffffffffffffffffffffffffffff1602179055505b50565b60008060009054906101000a900473ffffffffffffffffffffffffffffffffffffffff1673ffffffffffffffffffffffffffffffffffffffff168273ffffffffffffffffffffffffffffffffffffffff16149050919050565b6000809054906101000a900473ffffffffffffffffffffffffffffffffffffffff16815600a165627a7a72305820ec2b29f9b20ed69e212dc48c060fa13bf0df3b2615cc30d569fed56d64beaf8f0029",
  "source": "pragma solidity 0.4.19;\n\n\ncontract Owned {\n    address public owner;\n    modifier onlyOwner() {\n        require(isOwner(msg.sender));\n        _;\n    }\n\n    function Owned() { owner = msg.sender; }\n\n    function isOwner(address addr) public returns(bool) { return addr == owner; }\n\n    function transfer(address newOwner) public onlyOwner {\n        if (newOwner != address(this)) {\n            owner = newOwner;\n        }\n    }\n}\n",
  "sourcePath": "/Users/seanchuang/workspace/blockchain/idhub/idhub-member-system/contracts/libs/Owned.sol",
  "compiler": {
    "name": "solc",
    "version": "0.4.19+commit.c4cbbb05.Emscripten.clang"
  },
  "schemaVersion": "2.0.0",
  "updatedAt": "2018-11-27T02:36:42.907Z"
}