{
  "contractName": "ProfileManager",
  "abi": [
    {
      "inputs": [
        {
          "name": "managerAddr",
          "type": "address"
        }
      ],
      "payable": false,
      "stateMutability": "nonpayable",
      "type": "constructor"
    },
    {
      "anonymous": false,
      "inputs": [
        {
          "indexed": true,
          "name": "identity",
          "type": "address"
        },
        {
          "indexed": false,
          "name": "name",
          "type": "string"
        }
      ],
      "name": "NameChanged",
      "type": "event"
    },
    {
      "constant": false,
      "inputs": [
        {
          "name": "identity",
          "type": "address"
        },
        {
          "name": "name",
          "type": "string"
        }
      ],
      "name": "setName",
      "outputs": [],
      "payable": false,
      "stateMutability": "nonpayable",
      "type": "function"
    },
    {
      "constant": true,
      "inputs": [
        {
          "name": "identity",
          "type": "address"
        }
      ],
      "name": "name",
      "outputs": [
        {
          "name": "",
          "type": "string"
        }
      ],
      "payable": false,
      "stateMutability": "view",
      "type": "function"
    }
  ],
  "bytecode": "0x6060604052341561000f57600080fd5b6040516020806105f78339810160405280805190602001909190505080600160006101000a81548173ffffffffffffffffffffffffffffffffffffffff021916908373ffffffffffffffffffffffffffffffffffffffff1602179055505061057b8061007c6000396000f30060606040526004361061004c576000357c0100000000000000000000000000000000000000000000000000000000900463ffffffff16806301984892146100515780633121db1c14610103575b600080fd5b341561005c57600080fd5b610088600480803573ffffffffffffffffffffffffffffffffffffffff1690602001909190505061017f565b6040518080602001828103825283818151815260200191508051906020019080838360005b838110156100c85780820151818401526020810190506100ad565b50505050905090810190601f1680156100f55780820380516001836020036101000a031916815260200191505b509250505060405180910390f35b341561010e57600080fd5b61017d600480803573ffffffffffffffffffffffffffffffffffffffff1690602001909190803590602001908201803590602001908080601f01602080910402602001604051908101604052809392919081815260200183838082843782019150505050505091905050610268565b005b610187610496565b6000808373ffffffffffffffffffffffffffffffffffffffff1673ffffffffffffffffffffffffffffffffffffffff1681526020019081526020016000206000018054600181600116156101000203166002900480601f01602080910402602001604051908101604052809291908181526020018280546001816001161561010002031660029004801561025c5780601f106102315761010080835404028352916020019161025c565b820191906000526020600020905b81548152906001019060200180831161023f57829003601f168201915b50505050509050919050565b81600160009054906101000a900473ffffffffffffffffffffffffffffffffffffffff1673ffffffffffffffffffffffffffffffffffffffff16637ddc02d482336000604051602001526040518363ffffffff167c0100000000000000000000000000000000000000000000000000000000028152600401808373ffffffffffffffffffffffffffffffffffffffff1673ffffffffffffffffffffffffffffffffffffffff1681526020018273ffffffffffffffffffffffffffffffffffffffff1673ffffffffffffffffffffffffffffffffffffffff16815260200192505050602060405180830381600087803b151561036257600080fd5b6102c65a03f1151561037357600080fd5b50505060405180519050151561038857600080fd5b816000808573ffffffffffffffffffffffffffffffffffffffff1673ffffffffffffffffffffffffffffffffffffffff16815260200190815260200160002060000190805190602001906103dd9291906104aa565b508273ffffffffffffffffffffffffffffffffffffffff167f3b0a43ccc1ccd1c76ebb1a8d998fdfe1ded3766582dbbbcdda83889170bec53d836040518080602001828103825283818151815260200191508051906020019080838360005b8381101561045757808201518184015260208101905061043c565b50505050905090810190601f1680156104845780820380516001836020036101000a031916815260200191505b509250505060405180910390a2505050565b602060405190810160405280600081525090565b828054600181600116156101000203166002900490600052602060002090601f016020900481019282601f106104eb57805160ff1916838001178555610519565b82800160010185558215610519579182015b828111156105185782518255916020019190600101906104fd565b5b509050610526919061052a565b5090565b61054c91905b80821115610548576000816000905550600101610530565b5090565b905600a165627a7a7230582018f70e5788f2d365ab7bcc8c4dadd258ae2973d0076bd45601975debac03d2450029",
  "source": "pragma solidity 0.4.19;\n\nimport \"./IdentityManager.sol\";\n\ncontract ProfileManager {\n\n    event NameChanged(address indexed identity, string name);\n\n    struct Record {\n          string name;\n          string email;\n          bytes picture; // IPFS hash for profile pifcutre\n      }\n\n    mapping (address => Record) records;\n\n    IdentityManager manager;\n\n    modifier onlyOwner(address identity) {\n        require(manager.isOwner(identity, msg.sender));\n        _;\n    }\n\n    /**\n     * Constructor.\n     * @param managerAddr The ProfileManager contract.\n     */\n    function ProfileManager(IdentityManager managerAddr) public {\n        manager = managerAddr;\n    }\n\n    function setName(address identity, string name) public onlyOwner(identity) {\n        records[identity].name = name;\n        NameChanged(identity, name);\n    }\n\n    function name(address identity) public view returns (string) {\n        return records[identity].name;\n    }\n\n\n   \n}",
  "sourcePath": "/Users/seanchuang/workspace/blockchain/idhub/idhub-member-system/contracts/ProfileManager.sol",
  "compiler": {
    "name": "solc",
    "version": "0.4.19+commit.c4cbbb05.Emscripten.clang"
  },
  "schemaVersion": "2.0.0",
  "updatedAt": "2018-11-27T02:36:42.880Z"
}