{
  "contractName": "TestRegistry",
  "abi": [
    {
      "constant": true,
      "inputs": [
        {
          "name": "",
          "type": "address"
        }
      ],
      "name": "registry",
      "outputs": [
        {
          "name": "",
          "type": "uint256"
        }
      ],
      "payable": false,
      "stateMutability": "view",
      "type": "function"
    },
    {
      "constant": true,
      "inputs": [
        {
          "name": "",
          "type": "address"
        }
      ],
      "name": "strRegistry",
      "outputs": [
        {
          "name": "",
          "type": "string"
        }
      ],
      "payable": false,
      "stateMutability": "view",
      "type": "function"
    },
    {
      "constant": false,
      "inputs": [
        {
          "name": "x",
          "type": "uint256"
        }
      ],
      "name": "register",
      "outputs": [],
      "payable": false,
      "stateMutability": "nonpayable",
      "type": "function"
    },
    {
      "constant": false,
      "inputs": [
        {
          "name": "with",
          "type": "uint256"
        },
        {
          "name": "many",
          "type": "address"
        },
        {
          "name": "strange",
          "type": "string"
        },
        {
          "name": "params",
          "type": "uint256"
        }
      ],
      "name": "reallyLongFunctionName",
      "outputs": [],
      "payable": false,
      "stateMutability": "nonpayable",
      "type": "function"
    },
    {
      "constant": false,
      "inputs": [],
      "name": "testThrow",
      "outputs": [],
      "payable": false,
      "stateMutability": "nonpayable",
      "type": "function"
    }
  ],
  "bytecode": "0x6060604052341561000f57600080fd5b6104fb8061001e6000396000f30060606040526004361061006d576000357c0100000000000000000000000000000000000000000000000000000000900463ffffffff168063038defd7146100725780630da9a424146100bf57806350bff6bf1461014d578063e4d6a92d14610162578063f207564e14610214575b600080fd5b341561007d57600080fd5b6100a9600480803573ffffffffffffffffffffffffffffffffffffffff16906020019091905050610237565b6040518082815260200191505060405180910390f35b34156100ca57600080fd5b61014b600480803590602001909190803573ffffffffffffffffffffffffffffffffffffffff1690602001909190803590602001908201803590602001908080601f0160208091040260200160405190810160405280939291908181526020018383808284378201915050505050509190803590602001909190505061024f565b005b341561015857600080fd5b61016061032f565b005b341561016d57600080fd5b610199600480803573ffffffffffffffffffffffffffffffffffffffff16906020019091905050610334565b6040518080602001828103825283818151815260200191508051906020019080838360005b838110156101d95780820151818401526020810190506101be565b50505050905090810190601f1680156102065780820380516001836020036101000a031916815260200191505b509250505060405180910390f35b341561021f57600080fd5b61023560048080359060200190919050506103e4565b005b60006020528060005260406000206000915090505481565b81600160008573ffffffffffffffffffffffffffffffffffffffff1673ffffffffffffffffffffffffffffffffffffffff16815260200190815260200160002090805190602001906102a292919061042a565b50836000808573ffffffffffffffffffffffffffffffffffffffff1673ffffffffffffffffffffffffffffffffffffffff16815260200190815260200160002081905550806000808573ffffffffffffffffffffffffffffffffffffffff1673ffffffffffffffffffffffffffffffffffffffff1681526020019081526020016000208190555050505050565b600080fd5b60016020528060005260406000206000915090508054600181600116156101000203166002900480601f0160208091040260200160405190810160405280929190818152602001828054600181600116156101000203166002900480156103dc5780601f106103b1576101008083540402835291602001916103dc565b820191906000526020600020905b8154815290600101906020018083116103bf57829003601f168201915b505050505081565b806000803373ffffffffffffffffffffffffffffffffffffffff1673ffffffffffffffffffffffffffffffffffffffff1681526020019081526020016000208190555050565b828054600181600116156101000203166002900490600052602060002090601f016020900481019282601f1061046b57805160ff1916838001178555610499565b82800160010185558215610499579182015b8281111561049857825182559160200191906001019061047d565b5b5090506104a691906104aa565b5090565b6104cc91905b808211156104c85760008160009055506001016104b0565b5090565b905600a165627a7a723058201fc775dc0489797a1843bf94cfa66f543280e1c23adc7cf4e56cb32fd7d905bf0029",
  "source": "// This contract is only used for testing purposes.\npragma solidity 0.4.19;\n\n\ncontract TestRegistry {\n\n    mapping(address => uint) public registry;\n    mapping(address => string) public strRegistry;\n\n    function register(uint x) {\n        registry[msg.sender] = x;\n    }\n\n    function reallyLongFunctionName(\n        uint with,\n        address many,\n        string strange,\n        uint params\n    ) {\n        strRegistry[many] = strange;\n        registry[many] = with;\n        registry[many] = params;\n    }\n\n    function testThrow() {\n        revert();\n    }\n}",
  "sourcePath": "/Users/seanchuang/workspace/blockchain/idhub/idhub-member-system/contracts/misc/TestRegistry.sol",
  "compiler": {
    "name": "solc",
    "version": "0.4.19+commit.c4cbbb05.Emscripten.clang"
  },
  "schemaVersion": "2.0.0",
  "updatedAt": "2018-11-26T06:23:08.003Z"
}