{
  "contractName": "TxRelay",
  "abi": [
    {
      "constant": true,
      "inputs": [
        {
          "name": "",
          "type": "address"
        },
        {
          "name": "",
          "type": "address"
        }
      ],
      "name": "whitelist",
      "outputs": [
        {
          "name": "",
          "type": "bool"
        }
      ],
      "payable": false,
      "stateMutability": "view",
      "type": "function"
    },
    {
      "constant": false,
      "inputs": [
        {
          "name": "sigV",
          "type": "uint8"
        },
        {
          "name": "sigR",
          "type": "bytes32"
        },
        {
          "name": "sigS",
          "type": "bytes32"
        },
        {
          "name": "destination",
          "type": "address"
        },
        {
          "name": "data",
          "type": "bytes"
        },
        {
          "name": "listOwner",
          "type": "address"
        }
      ],
      "name": "relayMetaTx",
      "outputs": [],
      "payable": false,
      "stateMutability": "nonpayable",
      "type": "function"
    },
    {
      "constant": true,
      "inputs": [
        {
          "name": "b",
          "type": "bytes"
        }
      ],
      "name": "getAddress",
      "outputs": [
        {
          "name": "a",
          "type": "address"
        }
      ],
      "payable": false,
      "stateMutability": "view",
      "type": "function"
    },
    {
      "constant": true,
      "inputs": [
        {
          "name": "add",
          "type": "address"
        }
      ],
      "name": "getNonce",
      "outputs": [
        {
          "name": "",
          "type": "uint256"
        }
      ],
      "payable": false,
      "stateMutability": "view",
      "type": "function"
    },
    {
      "constant": false,
      "inputs": [
        {
          "name": "sendersToUpdate",
          "type": "address[]"
        }
      ],
      "name": "addToWhitelist",
      "outputs": [],
      "payable": false,
      "stateMutability": "nonpayable",
      "type": "function"
    },
    {
      "constant": false,
      "inputs": [
        {
          "name": "sendersToUpdate",
          "type": "address[]"
        }
      ],
      "name": "removeFromWhitelist",
      "outputs": [],
      "payable": false,
      "stateMutability": "nonpayable",
      "type": "function"
    }
  ],
  "bytecode": "0x6060604052341561000f57600080fd5b6109da8061001e6000396000f300606060405260043610610078576000357c0100000000000000000000000000000000000000000000000000000000900463ffffffff1680632d0335ab1461007d578063548db174146100ca5780637f64978314610124578063b092145e1461017e578063c3f44c0a146101ee578063c47cf5de146102af575b600080fd5b341561008857600080fd5b6100b4600480803573ffffffffffffffffffffffffffffffffffffffff1690602001909190505061034c565b6040518082815260200191505060405180910390f35b34156100d557600080fd5b610122600480803590602001908201803590602001908080602002602001604051908101604052809392919081815260200183836020028082843782019150505050505091905050610394565b005b341561012f57600080fd5b61017c6004808035906020019082018035906020019080806020026020016040519081016040528093929190818152602001838360200280828437820191505050505050919050506103a2565b005b341561018957600080fd5b6101d4600480803573ffffffffffffffffffffffffffffffffffffffff1690602001909190803573ffffffffffffffffffffffffffffffffffffffff169060200190919050506103b0565b604051808215151515815260200191505060405180910390f35b34156101f957600080fd5b6102ad600480803560ff16906020019091908035600019169060200190919080356000191690602001909190803573ffffffffffffffffffffffffffffffffffffffff1690602001909190803590602001908201803590602001908080601f0160208091040260200160405190810160405280939291908181526020018383808284378201915050505050509190803573ffffffffffffffffffffffffffffffffffffffff169060200190919050506103df565b005b34156102ba57600080fd5b61030a600480803590602001908201803590602001908080601f016020809104026020016040519081016040528093929190818152602001838380828437820191505050505050919050506108a8565b604051808273ffffffffffffffffffffffffffffffffffffffff1673ffffffffffffffffffffffffffffffffffffffff16815260200191505060405180910390f35b60008060008373ffffffffffffffffffffffffffffffffffffffff1673ffffffffffffffffffffffffffffffffffffffff168152602001908152602001600020549050919050565b61039f8160006108e2565b50565b6103ad8160016108e2565b50565b60016020528160005260406000206020528060005260406000206000915091509054906101000a900460ff1681565b6000806000808473ffffffffffffffffffffffffffffffffffffffff16148061048e5750600160008573ffffffffffffffffffffffffffffffffffffffff1673ffffffffffffffffffffffffffffffffffffffff16815260200190815260200160002060003373ffffffffffffffffffffffffffffffffffffffff1673ffffffffffffffffffffffffffffffffffffffff16815260200190815260200160002060009054906101000a900460ff165b151561049957600080fd5b6104a2856108a8565b925060197f01000000000000000000000000000000000000000000000000000000000000000260007f01000000000000000000000000000000000000000000000000000000000000000230866000808873ffffffffffffffffffffffffffffffffffffffff1673ffffffffffffffffffffffffffffffffffffffff168152602001908152602001600020548a8a60405180887effffffffffffffffffffffffffffffffffffffffffffffffffffffffffffff19167effffffffffffffffffffffffffffffffffffffffffffffffffffffffffffff19168152600101877effffffffffffffffffffffffffffffffffffffffffffffffffffffffffffff19167effffffffffffffffffffffffffffffffffffffffffffffffffffffffffffff191681526001018673ffffffffffffffffffffffffffffffffffffffff1673ffffffffffffffffffffffffffffffffffffffff166c010000000000000000000000000281526014018573ffffffffffffffffffffffffffffffffffffffff1673ffffffffffffffffffffffffffffffffffffffff166c010000000000000000000000000281526014018481526020018373ffffffffffffffffffffffffffffffffffffffff1673ffffffffffffffffffffffffffffffffffffffff166c0100000000000000000000000002815260140182805190602001908083835b6020831015156106c1578051825260208201915060208101905060208303925061069c565b6001836020036101000a038019825116818451168082178552505050505050905001975050505050505050604051809103902091506001828a8a8a604051600081526020016040526000604051602001526040518085600019166000191681526020018460ff1660ff16815260200183600019166000191681526020018260001916600019168152602001945050505050602060405160208103908084039060008661646e5a03f1151561077457600080fd5b50506020604051035190508073ffffffffffffffffffffffffffffffffffffffff168373ffffffffffffffffffffffffffffffffffffffff161415156107b957600080fd5b6000808473ffffffffffffffffffffffffffffffffffffffff1673ffffffffffffffffffffffffffffffffffffffff168152602001908152602001600020600081548092919060010191905055508573ffffffffffffffffffffffffffffffffffffffff168560405180828051906020019080838360005b8381101561084c578082015181840152602081019050610831565b50505050905090810190601f1680156108795780820380516001836020036101000a031916815260200191505b5091505060006040518083038160008661646e5a03f1915050151561089d57600080fd5b505050505050505050565b60006024825110156108bd57600090506108dd565b73ffffffffffffffffffffffffffffffffffffffff602483015181169150505b919050565b60008090505b82518110156109a95781600160003373ffffffffffffffffffffffffffffffffffffffff1673ffffffffffffffffffffffffffffffffffffffff1681526020019081526020016000206000858481518110151561094157fe5b9060200190602002015173ffffffffffffffffffffffffffffffffffffffff1673ffffffffffffffffffffffffffffffffffffffff16815260200190815260200160002060006101000a81548160ff02191690831515021790555080806001019150506108e8565b5050505600a165627a7a72305820ab333e3bb6814ae35af5824b077ee32d68e6d4cbe1a54ac5a979098f4b4486ef0029",
  "source": "pragma solidity 0.4.19;\n\n\n// This contract is meant as a \"singleton\" forwarding contract.\n// Eventually, it will be able to forward any transaction to\n// Any contract that is built to accept it.\ncontract TxRelay {\n\n    // Note: This is a local nonce.\n    // Different from the nonce defined w/in protocol.\n    mapping(address => uint) nonce;\n\n    // This mapping specifies a whitelist of allowed senders for transactions.\n    // There can be one whitelist per ethereum account, which is the owner of that\n    // whitelist. Users can specify which whitelist they want to use when signing\n    // a transaction. They can use their own whitelist, a whitelist belonging\n    // to another account, or skip using a whitelist by specifying the zero address.\n    mapping(address => mapping(address => bool)) public whitelist;\n\n    /*\n     * @dev Relays meta transactions\n     * @param sigV, sigR, sigS ECDSA signature on some data to be forwarded\n     * @param destination Location the meta-tx should be forwarded to\n     * @param data The bytes necessary to call the function in the destination contract.\n     * Note: The first encoded argument in data must be address of the signer. This means\n     * that all functions called from this relay must take an address as the first parameter.\n     */\n    function relayMetaTx(\n        uint8 sigV,\n        bytes32 sigR,\n        bytes32 sigS,\n        address destination,\n        bytes data,\n        address listOwner\n    ) public {\n\n        // only allow senders from the whitelist specified by the user,\n        // 0x0 means no whitelist.\n        require(listOwner == 0x0 || whitelist[listOwner][msg.sender]);\n\n        address claimedSender = getAddress(data);\n        // use EIP 191\n        // 0x19 :: version :: relay :: whitelistOwner :: nonce :: destination :: data\n        bytes32 h = keccak256(byte(0x19), byte(0), this, listOwner, nonce[claimedSender], destination, data);\n        address addressFromSig = ecrecover(h, sigV, sigR, sigS);\n\n        require(claimedSender == addressFromSig);\n\n        nonce[claimedSender]++; //if we are going to do tx, update nonce\n\n        require(destination.call(data));\n    }\n\n    /*\n     * @dev Gets an address encoded as the first argument in transaction data\n     * @param b The byte array that should have an address as first argument\n     * @returns a The address retrieved from the array\n     (Optimization based on work by tjade273)\n     */\n    function getAddress(bytes b) public constant returns (address a) {\n        if (b.length < 36) return address(0);\n        assembly {\n            let mask := 0xFFFFFFFFFFFFFFFFFFFFFFFFFFFFFFFFFFFFFFFF\n            a := and(mask, mload(add(b, 36)))\n            // 36 is the offset of the first parameter of the data, if encoded properly.\n            // 32 bytes for the length of the bytes array, and 4 bytes for the function signature.\n        }\n    }\n\n    /*\n     * @dev Returns the local nonce of an account.\n     * @param add The address to return the nonce for.\n     * @return The specific-to-this-contract nonce of the address provided\n     */\n    function getNonce(address add) public constant returns (uint) {\n        return nonce[add];\n    }\n\n    /*\n     * @dev Adds a number of addresses to a specific whitelist. Only\n     * the owner of a whitelist can add to it.\n     * @param sendersToUpdate the addresses to add to the whitelist\n     */\n    function addToWhitelist(address[] sendersToUpdate) public {\n        updateWhitelist(sendersToUpdate, true);\n    }\n\n    /*\n     * @dev Removes a number of addresses from a specific whitelist. Only\n     * the owner of a whitelist can remove from it.\n     * @param sendersToUpdate the addresses to add to the whitelist\n     */\n    function removeFromWhitelist(address[] sendersToUpdate) public {\n        updateWhitelist(sendersToUpdate, false);\n    }\n\n    /*\n     * @dev Internal logic to update a whitelist\n     * @param sendersToUpdate the addresses to add to the whitelist\n     * @param newStatus whether to add or remove addresses\n     */\n    function updateWhitelist(address[] sendersToUpdate, bool newStatus) private {\n        for (uint i = 0; i < sendersToUpdate.length; i++) {\n            whitelist[msg.sender][sendersToUpdate[i]] = newStatus;\n        }\n    }\n}",
  "sourcePath": "/Users/seanchuang/workspace/blockchain/idhub/idhub-member-system/contracts/TxRelay.sol",
  "compiler": {
    "name": "solc",
    "version": "0.4.19+commit.c4cbbb05.Emscripten.clang"
  },
  "schemaVersion": "2.0.0",
  "updatedAt": "2018-11-26T06:23:08.002Z"
}